{
  "_format": "hh-sol-artifact-1",
  "contractName": "Carpooling",
  "sourceName": "contracts/Carpooling.sol",
  "abi": [
    {
      "anonymous": false,
      "inputs": [
        {
          "indexed": false,
          "internalType": "address",
          "name": "_driverID",
          "type": "address"
        }
      ],
      "name": "DriverRegistered",
      "type": "event"
    },
    {
      "stateMutability": "nonpayable",
      "type": "fallback"
    },
    {
      "inputs": [
        {
          "internalType": "address",
          "name": "PID",
          "type": "address"
        },
        {
          "internalType": "string",
          "name": "response",
          "type": "string"
        }
      ],
      "name": "addReview",
      "outputs": [],
      "stateMutability": "nonpayable",
      "type": "function"
    },
    {
      "inputs": [
        {
          "internalType": "address",
          "name": "driver",
          "type": "address"
        },
        {
          "internalType": "uint256",
          "name": "_rideID",
          "type": "uint256"
        }
      ],
      "name": "addUserToRide",
      "outputs": [],
      "stateMutability": "payable",
      "type": "function"
    },
    {
      "inputs": [],
      "name": "connectionStatus",
      "outputs": [
        {
          "internalType": "string",
          "name": "",
          "type": "string"
        }
      ],
      "stateMutability": "pure",
      "type": "function"
    },
    {
      "inputs": [
        {
          "internalType": "address",
          "name": "_driverID",
          "type": "address"
        },
        {
          "internalType": "uint256",
          "name": "_rideId",
          "type": "uint256"
        }
      ],
      "name": "endRide",
      "outputs": [],
      "stateMutability": "payable",
      "type": "function"
    },
    {
      "inputs": [
        {
          "internalType": "address",
          "name": "_driverID",
          "type": "address"
        }
      ],
      "name": "getActiveRides",
      "outputs": [
        {
          "components": [
            {
              "internalType": "uint256",
              "name": "RID",
              "type": "uint256"
            },
            {
              "internalType": "address",
              "name": "driverID",
              "type": "address"
            },
            {
              "internalType": "address[]",
              "name": "usersID",
              "type": "address[]"
            },
            {
              "internalType": "string",
              "name": "from",
              "type": "string"
            },
            {
              "internalType": "string",
              "name": "to",
              "type": "string"
            },
            {
              "internalType": "bool",
              "name": "active",
              "type": "bool"
            },
            {
              "internalType": "uint256",
              "name": "totalCharge",
              "type": "uint256"
            },
            {
              "internalType": "bool",
              "name": "paid",
              "type": "bool"
            },
            {
              "internalType": "uint256",
              "name": "startTimestamp",
              "type": "uint256"
            },
            {
              "internalType": "uint256",
              "name": "endTimestamp",
              "type": "uint256"
            },
            {
              "internalType": "uint256",
              "name": "availableSeats",
              "type": "uint256"
            }
          ],
          "internalType": "struct Carpooling.Ride[]",
          "name": "",
          "type": "tuple[]"
        }
      ],
      "stateMutability": "view",
      "type": "function"
    },
    {
      "inputs": [
        {
          "internalType": "address",
          "name": "_driverID",
          "type": "address"
        }
      ],
      "name": "getRidesOfDriver",
      "outputs": [
        {
          "components": [
            {
              "internalType": "uint256",
              "name": "RID",
              "type": "uint256"
            },
            {
              "internalType": "address",
              "name": "driverID",
              "type": "address"
            },
            {
              "internalType": "address[]",
              "name": "usersID",
              "type": "address[]"
            },
            {
              "internalType": "string",
              "name": "from",
              "type": "string"
            },
            {
              "internalType": "string",
              "name": "to",
              "type": "string"
            },
            {
              "internalType": "bool",
              "name": "active",
              "type": "bool"
            },
            {
              "internalType": "uint256",
              "name": "totalCharge",
              "type": "uint256"
            },
            {
              "internalType": "bool",
              "name": "paid",
              "type": "bool"
            },
            {
              "internalType": "uint256",
              "name": "startTimestamp",
              "type": "uint256"
            },
            {
              "internalType": "uint256",
              "name": "endTimestamp",
              "type": "uint256"
            },
            {
              "internalType": "uint256",
              "name": "availableSeats",
              "type": "uint256"
            }
          ],
          "internalType": "struct Carpooling.Ride[]",
          "name": "",
          "type": "tuple[]"
        }
      ],
      "stateMutability": "view",
      "type": "function"
    },
    {
      "inputs": [
        {
          "internalType": "string",
          "name": "_name",
          "type": "string"
        },
        {
          "internalType": "string",
          "name": "_noPlate",
          "type": "string"
        },
        {
          "internalType": "string",
          "name": "_color",
          "type": "string"
        },
        {
          "internalType": "uint256",
          "name": "_charge",
          "type": "uint256"
        }
      ],
      "name": "registerCar",
      "outputs": [
        {
          "internalType": "uint256",
          "name": "_cid",
          "type": "uint256"
        }
      ],
      "stateMutability": "nonpayable",
      "type": "function"
    },
    {
      "inputs": [
        {
          "internalType": "string",
          "name": "_name",
          "type": "string"
        },
        {
          "internalType": "uint256",
          "name": "_phoneNo",
          "type": "uint256"
        },
        {
          "internalType": "string",
          "name": "_email",
          "type": "string"
        },
        {
          "internalType": "string",
          "name": "_docsId",
          "type": "string"
        },
        {
          "internalType": "string",
          "name": "_livingAddress",
          "type": "string"
        },
        {
          "internalType": "uint8",
          "name": "_pincode",
          "type": "uint8"
        },
        {
          "internalType": "uint256",
          "name": "_CarId",
          "type": "uint256"
        }
      ],
      "name": "registerDriver",
      "outputs": [
        {
          "internalType": "address",
          "name": "_did",
          "type": "address"
        }
      ],
      "stateMutability": "nonpayable",
      "type": "function"
    },
    {
      "inputs": [
        {
          "internalType": "address",
          "name": "_driverID",
          "type": "address"
        },
        {
          "internalType": "uint256",
          "name": "seats",
          "type": "uint256"
        },
        {
          "internalType": "address[]",
          "name": "_usersID",
          "type": "address[]"
        },
        {
          "internalType": "string",
          "name": "_from",
          "type": "string"
        },
        {
          "internalType": "string",
          "name": "_to",
          "type": "string"
        },
        {
          "internalType": "uint256",
          "name": "_totalCharge",
          "type": "uint256"
        },
        {
          "internalType": "bool",
          "name": "_paid",
          "type": "bool"
        },
        {
          "internalType": "uint256",
          "name": "_startTimestamp",
          "type": "uint256"
        },
        {
          "internalType": "uint256",
          "name": "_endTimestamp",
          "type": "uint256"
        }
      ],
      "name": "registerRide",
      "outputs": [],
      "stateMutability": "nonpayable",
      "type": "function"
    },
    {
      "inputs": [
        {
          "internalType": "string",
          "name": "_name",
          "type": "string"
        }
      ],
      "name": "registerUser",
      "outputs": [],
      "stateMutability": "nonpayable",
      "type": "function"
    },
    {
      "inputs": [
        {
          "internalType": "address",
          "name": "_driverID",
          "type": "address"
        },
        {
          "internalType": "uint256",
          "name": "_rideId",
          "type": "uint256"
        }
      ],
      "name": "startRide",
      "outputs": [],
      "stateMutability": "nonpayable",
      "type": "function"
    }
  ],
  "bytecode": "0x608060405260008055600060015534801561001957600080fd5b50612cdc806100296000396000f3fe6080604052600436106100a05760003560e01c806378a71cc01161006457806378a71cc0146101835780637fed674d1461019f57806381d7d0d9146101c8578063ca144bc814610205578063eb4bdad014610242578063f971c55c1461026d576100a1565b8063142fbc6c146100af5780631ab4f0b1146100d857806365a25006146100f4578063704f1b9414610131578063720c67501461015a576100a1565b5b3480156100ad57600080fd5b005b3480156100bb57600080fd5b506100d660048036038101906100d19190611fb0565b6102aa565b005b6100f260048036038101906100ed91906120ce565b6104ab565b005b34801561010057600080fd5b5061011b6004803603810190610116919061210e565b61063d565b6040516101289190612455565b60405180910390f35b34801561013d57600080fd5b5061015860048036038101906101539190612477565b610a8e565b005b34801561016657600080fd5b50610181600480360381019061017c91906124c0565b610b46565b005b61019d600480360381019061019891906120ce565b610c3c565b005b3480156101ab57600080fd5b506101c660048036038101906101c191906120ce565b610d05565b005b3480156101d457600080fd5b506101ef60048036038101906101ea919061251c565b610d15565b6040516101fc91906125e6565b60405180910390f35b34801561021157600080fd5b5061022c6004803603810190610227919061210e565b610ebf565b6040516102399190612455565b60405180910390f35b34801561024e57600080fd5b506102576111ce565b604051610264919061264b565b60405180910390f35b34801561027957600080fd5b50610294600480360381019061028f91906126a6565b61120b565b6040516102a191906127c7565b60405180910390f35b600160008154809291906102bd90612811565b9190505550600060405180610160016040528060015481526020018b73ffffffffffffffffffffffffffffffffffffffff16815260200189815260200188815260200187815260200160001515815260200186815260200185151581526020018481526020018381526020018a8152509050600560003373ffffffffffffffffffffffffffffffffffffffff1673ffffffffffffffffffffffffffffffffffffffff1681526020019081526020016000208190806001815401808255809150506001900390600052602060002090600b02016000909190919091506000820151816000015560208201518160010160006101000a81548173ffffffffffffffffffffffffffffffffffffffff021916908373ffffffffffffffffffffffffffffffffffffffff1602179055506040820151816002019080519060200190610405929190611ae6565b50606082015181600301908161041b9190612a65565b5060808201518160040190816104319190612a65565b5060a08201518160050160006101000a81548160ff02191690831515021790555060c0820151816006015560e08201518160070160006101000a81548160ff0219169083151502179055506101008201518160080155610120820151816009015561014082015181600a0155505050505050505050505050565b6000600560008473ffffffffffffffffffffffffffffffffffffffff1673ffffffffffffffffffffffffffffffffffffffff16815260200190815260200160002082815481106104fe576104fd612b37565b5b90600052602060002090600b02019050600081600a015411610555576040517f08c379a000000000000000000000000000000000000000000000000000000000815260040161054c90612bb2565b60405180910390fd5b6000349050600033905082600201819080600181540180825580915050600190039060005260206000200160009091909190916101000a81548173ffffffffffffffffffffffffffffffffffffffff021916908373ffffffffffffffffffffffffffffffffffffffff16021790555081600760008773ffffffffffffffffffffffffffffffffffffffff1673ffffffffffffffffffffffffffffffffffffffff16815260200190815260200160002060008282546106139190612bd2565b92505081905550600183600a01600082825461062f9190612c06565b925050819055505050505050565b60606000600560008473ffffffffffffffffffffffffffffffffffffffff1673ffffffffffffffffffffffffffffffffffffffff168152602001908152602001600020805480602002602001604051908101604052809291908181526020016000905b8282101561094357838290600052602060002090600b020160405180610160016040529081600082015481526020016001820160009054906101000a900473ffffffffffffffffffffffffffffffffffffffff1673ffffffffffffffffffffffffffffffffffffffff1673ffffffffffffffffffffffffffffffffffffffff168152602001600282018054806020026020016040519081016040528092919081815260200182805480156107a957602002820191906000526020600020905b8160009054906101000a900473ffffffffffffffffffffffffffffffffffffffff1673ffffffffffffffffffffffffffffffffffffffff168152602001906001019080831161075f575b505050505081526020016003820180546107c290612888565b80601f01602080910402602001604051908101604052809291908181526020018280546107ee90612888565b801561083b5780601f106108105761010080835404028352916020019161083b565b820191906000526020600020905b81548152906001019060200180831161081e57829003601f168201915b5050505050815260200160048201805461085490612888565b80601f016020809104026020016040519081016040528092919081815260200182805461088090612888565b80156108cd5780601f106108a2576101008083540402835291602001916108cd565b820191906000526020600020905b8154815290600101906020018083116108b057829003601f168201915b505050505081526020016005820160009054906101000a900460ff16151515158152602001600682015481526020016007820160009054906101000a900460ff161515151581526020016008820154815260200160098201548152602001600a82015481525050815260200190600101906106a0565b5050505090506000805b825181101561099c5782818151811061096957610968612b37565b5b602002602001015160a001511561098957818061098590612811565b9250505b808061099490612811565b91505061094d565b5060008167ffffffffffffffff8111156109b9576109b8611d80565b5b6040519080825280602002602001820160405280156109f257816020015b6109df611b70565b8152602001906001900390816109d75790505b5090506000805b8451811015610a8157848181518110610a1557610a14612b37565b5b602002602001015160a0015115610a6e57848181518110610a3957610a38612b37565b5b6020026020010151838381518110610a5457610a53612b37565b5b60200260200101819052508180610a6a90612811565b9250505b8080610a7990612811565b9150506109f9565b5081945050505050919050565b600360405180604001604052803373ffffffffffffffffffffffffffffffffffffffff16815260200183815250908060018154018082558091505060019003906000526020600020906002020160009091909190915060008201518160000160006101000a81548173ffffffffffffffffffffffffffffffffffffffff021916908373ffffffffffffffffffffffffffffffffffffffff1602179055506020820151816001019081610b409190612a65565b50505050565b600460008373ffffffffffffffffffffffffffffffffffffffff1673ffffffffffffffffffffffffffffffffffffffff16815260200190815260200160002060405180604001604052808473ffffffffffffffffffffffffffffffffffffffff16815260200183815250908060018154018082558091505060019003906000526020600020906002020160009091909190915060008201518160000160006101000a81548173ffffffffffffffffffffffffffffffffffffffff021916908373ffffffffffffffffffffffffffffffffffffffff1602179055506020820151816001019081610c359190612a65565b5050505050565b60008273ffffffffffffffffffffffffffffffffffffffff166108fc600760008673ffffffffffffffffffffffffffffffffffffffff1673ffffffffffffffffffffffffffffffffffffffff168152602001908152602001600020549081150290604051600060405180830381858888f19350505050905080610cf4576040517f08c379a0000000000000000000000000000000000000000000000000000000008152600401610ceb90612c86565b60405180910390fd5b610d00838360006113f2565b505050565b610d11828260016113f2565b5050565b6000806000815480929190610d2990612811565b9190505550610d36611be4565b85816020018190525060005481600001818152505033816040019073ffffffffffffffffffffffffffffffffffffffff16908173ffffffffffffffffffffffffffffffffffffffff1681525050848160600181905250838160800181905250828160a0018181525050600660003373ffffffffffffffffffffffffffffffffffffffff1673ffffffffffffffffffffffffffffffffffffffff168152602001908152602001600020819080600181540180825580915050600190039060005260206000209060070201600090919091909150600082015181600001556020820151816001019081610e279190612a65565b5060408201518160020160006101000a81548173ffffffffffffffffffffffffffffffffffffffff021916908373ffffffffffffffffffffffffffffffffffffffff1602179055506060820151816003019081610e849190612a65565b506080820151816004019081610e9a9190612a65565b5060a0820151816005015560c082015181600601555050600054915050949350505050565b6060600560008373ffffffffffffffffffffffffffffffffffffffff1673ffffffffffffffffffffffffffffffffffffffff168152602001908152602001600020805480602002602001604051908101604052809291908181526020016000905b828210156111c357838290600052602060002090600b020160405180610160016040529081600082015481526020016001820160009054906101000a900473ffffffffffffffffffffffffffffffffffffffff1673ffffffffffffffffffffffffffffffffffffffff1673ffffffffffffffffffffffffffffffffffffffff1681526020016002820180548060200260200160405190810160405280929190818152602001828054801561102957602002820191906000526020600020905b8160009054906101000a900473ffffffffffffffffffffffffffffffffffffffff1673ffffffffffffffffffffffffffffffffffffffff1681526020019060010190808311610fdf575b5050505050815260200160038201805461104290612888565b80601f016020809104026020016040519081016040528092919081815260200182805461106e90612888565b80156110bb5780601f10611090576101008083540402835291602001916110bb565b820191906000526020600020905b81548152906001019060200180831161109e57829003601f168201915b505050505081526020016004820180546110d490612888565b80601f016020809104026020016040519081016040528092919081815260200182805461110090612888565b801561114d5780601f106111225761010080835404028352916020019161114d565b820191906000526020600020905b81548152906001019060200180831161113057829003601f168201915b505050505081526020016005820160009054906101000a900460ff16151515158152602001600682015481526020016007820160009054906101000a900460ff161515151581526020016008820154815260200160098201548152602001600a8201548152505081526020019060010190610f20565b505050509050919050565b60606040518060400160405280601281526020017f436f6e6e656374696f6e20537563636573730000000000000000000000000000815250905090565b6000611215611c37565b6040518061014001604052803373ffffffffffffffffffffffffffffffffffffffff1681526020018a8152602001898152602001888152602001878152602001600015158152602001600081526020018681526020018560ff16815260200184815250905060028190806001815401808255809150506001900390600052602060002090600a020160009091909190915060008201518160000160006101000a81548173ffffffffffffffffffffffffffffffffffffffff021916908373ffffffffffffffffffffffffffffffffffffffff16021790555060208201518160010190816113029190612a65565b506040820151816002015560608201518160030190816113229190612a65565b5060808201518160040190816113389190612a65565b5060a08201518160050160006101000a81548160ff02191690831515021790555060c0820151816006015560e08201518160070190816113789190612a65565b506101008201518160080160006101000a81548160ff021916908360ff16021790555061012082015181600901555050806000015191507fbe5e7a1c543800c6abb49749a131598b050660d403a09b2e31318c2048c00d74826040516113de91906127c7565b60405180910390a150979650505050505050565b6000600560008573ffffffffffffffffffffffffffffffffffffffff1673ffffffffffffffffffffffffffffffffffffffff168152602001908152602001600020805480602002602001604051908101604052809291908181526020016000905b828210156116f657838290600052602060002090600b020160405180610160016040529081600082015481526020016001820160009054906101000a900473ffffffffffffffffffffffffffffffffffffffff1673ffffffffffffffffffffffffffffffffffffffff1673ffffffffffffffffffffffffffffffffffffffff1681526020016002820180548060200260200160405190810160405280929190818152602001828054801561155c57602002820191906000526020600020905b8160009054906101000a900473ffffffffffffffffffffffffffffffffffffffff1673ffffffffffffffffffffffffffffffffffffffff1681526020019060010190808311611512575b5050505050815260200160038201805461157590612888565b80601f01602080910402602001604051908101604052809291908181526020018280546115a190612888565b80156115ee5780601f106115c3576101008083540402835291602001916115ee565b820191906000526020600020905b8154815290600101906020018083116115d157829003601f168201915b5050505050815260200160048201805461160790612888565b80601f016020809104026020016040519081016040528092919081815260200182805461163390612888565b80156116805780601f1061165557610100808354040283529160200191611680565b820191906000526020600020905b81548152906001019060200180831161166357829003601f168201915b505050505081526020016005820160009054906101000a900460ff16151515158152602001600682015481526020016007820160009054906101000a900460ff161515151581526020016008820154815260200160098201548152602001600a8201548152505081526020019060010190611453565b505050509050611704611b70565b60005b8251811015611aa4578483828151811061172457611723612b37565b5b60200260200101516000015103611a915783600560008873ffffffffffffffffffffffffffffffffffffffff1673ffffffffffffffffffffffffffffffffffffffff168152602001908152602001600020828154811061178757611786612b37565b5b90600052602060002090600b020160050160006101000a81548160ff021916908315150217905550600560008773ffffffffffffffffffffffffffffffffffffffff1673ffffffffffffffffffffffffffffffffffffffff1681526020019081526020016000208181548110611800576117ff612b37565b5b90600052602060002090600b020160405180610160016040529081600082015481526020016001820160009054906101000a900473ffffffffffffffffffffffffffffffffffffffff1673ffffffffffffffffffffffffffffffffffffffff1673ffffffffffffffffffffffffffffffffffffffff168152602001600282018054806020026020016040519081016040528092919081815260200182805480156118ff57602002820191906000526020600020905b8160009054906101000a900473ffffffffffffffffffffffffffffffffffffffff1673ffffffffffffffffffffffffffffffffffffffff16815260200190600101908083116118b5575b5050505050815260200160038201805461191890612888565b80601f016020809104026020016040519081016040528092919081815260200182805461194490612888565b80156119915780601f1061196657610100808354040283529160200191611991565b820191906000526020600020905b81548152906001019060200180831161197457829003601f168201915b505050505081526020016004820180546119aa90612888565b80601f01602080910402602001604051908101604052809291908181526020018280546119d690612888565b8015611a235780601f106119f857610100808354040283529160200191611a23565b820191906000526020600020905b815481529060010190602001808311611a0657829003601f168201915b505050505081526020016005820160009054906101000a900460ff16151515158152602001600682015481526020016007820160009054906101000a900460ff161515151581526020016008820154815260200160098201548152602001600a820154815250509150611aa4565b8080611a9c90612811565b915050611707565b50600081610120015114611ad35760018160e00190151590811515815250504281610120018181525050611adf565b42816101000181815250505b5050505050565b828054828255906000526020600020908101928215611b5f579160200282015b82811115611b5e5782518260006101000a81548173ffffffffffffffffffffffffffffffffffffffff021916908373ffffffffffffffffffffffffffffffffffffffff16021790555091602001919060010190611b06565b5b509050611b6c9190611ca5565b5090565b60405180610160016040528060008152602001600073ffffffffffffffffffffffffffffffffffffffff168152602001606081526020016060815260200160608152602001600015158152602001600081526020016000151581526020016000815260200160008152602001600081525090565b6040518060e001604052806000815260200160608152602001600073ffffffffffffffffffffffffffffffffffffffff168152602001606081526020016060815260200160008152602001600081525090565b604051806101400160405280600073ffffffffffffffffffffffffffffffffffffffff168152602001606081526020016000815260200160608152602001606081526020016000151581526020016000815260200160608152602001600060ff168152602001600081525090565b5b80821115611cbe576000816000905550600101611ca6565b5090565b6000604051905090565b600080fd5b600080fd5b600073ffffffffffffffffffffffffffffffffffffffff82169050919050565b6000611d0182611cd6565b9050919050565b611d1181611cf6565b8114611d1c57600080fd5b50565b600081359050611d2e81611d08565b92915050565b6000819050919050565b611d4781611d34565b8114611d5257600080fd5b50565b600081359050611d6481611d3e565b92915050565b600080fd5b6000601f19601f8301169050919050565b7f4e487b7100000000000000000000000000000000000000000000000000000000600052604160045260246000fd5b611db882611d6f565b810181811067ffffffffffffffff82111715611dd757611dd6611d80565b5b80604052505050565b6000611dea611cc2565b9050611df68282611daf565b919050565b600067ffffffffffffffff821115611e1657611e15611d80565b5b602082029050602081019050919050565b600080fd5b6000611e3f611e3a84611dfb565b611de0565b90508083825260208201905060208402830185811115611e6257611e61611e27565b5b835b81811015611e8b5780611e778882611d1f565b845260208401935050602081019050611e64565b5050509392505050565b600082601f830112611eaa57611ea9611d6a565b5b8135611eba848260208601611e2c565b91505092915050565b600080fd5b600067ffffffffffffffff821115611ee357611ee2611d80565b5b611eec82611d6f565b9050602081019050919050565b82818337600083830152505050565b6000611f1b611f1684611ec8565b611de0565b905082815260208101848484011115611f3757611f36611ec3565b5b611f42848285611ef9565b509392505050565b600082601f830112611f5f57611f5e611d6a565b5b8135611f6f848260208601611f08565b91505092915050565b60008115159050919050565b611f8d81611f78565b8114611f9857600080fd5b50565b600081359050611faa81611f84565b92915050565b60008060008060008060008060006101208a8c031215611fd357611fd2611ccc565b5b6000611fe18c828d01611d1f565b9950506020611ff28c828d01611d55565b98505060408a013567ffffffffffffffff81111561201357612012611cd1565b5b61201f8c828d01611e95565b97505060608a013567ffffffffffffffff8111156120405761203f611cd1565b5b61204c8c828d01611f4a565b96505060808a013567ffffffffffffffff81111561206d5761206c611cd1565b5b6120798c828d01611f4a565b95505060a061208a8c828d01611d55565b94505060c061209b8c828d01611f9b565b93505060e06120ac8c828d01611d55565b9250506101006120be8c828d01611d55565b9150509295985092959850929598565b600080604083850312156120e5576120e4611ccc565b5b60006120f385828601611d1f565b925050602061210485828601611d55565b9150509250929050565b60006020828403121561212457612123611ccc565b5b600061213284828501611d1f565b91505092915050565b600081519050919050565b600082825260208201905092915050565b6000819050602082019050919050565b61217081611d34565b82525050565b61217f81611cf6565b82525050565b600081519050919050565b600082825260208201905092915050565b6000819050602082019050919050565b60006121bd8383612176565b60208301905092915050565b6000602082019050919050565b60006121e182612185565b6121eb8185612190565b93506121f6836121a1565b8060005b8381101561222757815161220e88826121b1565b9750612219836121c9565b9250506001810190506121fa565b5085935050505092915050565b600081519050919050565b600082825260208201905092915050565b60005b8381101561226e578082015181840152602081019050612253565b60008484015250505050565b600061228582612234565b61228f818561223f565b935061229f818560208601612250565b6122a881611d6f565b840191505092915050565b6122bc81611f78565b82525050565b6000610160830160008301516122db6000860182612167565b5060208301516122ee6020860182612176565b506040830151848203604086015261230682826121d6565b91505060608301518482036060860152612320828261227a565b9150506080830151848203608086015261233a828261227a565b91505060a083015161234f60a08601826122b3565b5060c083015161236260c0860182612167565b5060e083015161237560e08601826122b3565b5061010083015161238a610100860182612167565b5061012083015161239f610120860182612167565b506101408301516123b4610140860182612167565b508091505092915050565b60006123cb83836122c2565b905092915050565b6000602082019050919050565b60006123eb8261213b565b6123f58185612146565b93508360208202850161240785612157565b8060005b85811015612443578484038952815161242485826123bf565b945061242f836123d3565b925060208a0199505060018101905061240b565b50829750879550505050505092915050565b6000602082019050818103600083015261246f81846123e0565b905092915050565b60006020828403121561248d5761248c611ccc565b5b600082013567ffffffffffffffff8111156124ab576124aa611cd1565b5b6124b784828501611f4a565b91505092915050565b600080604083850312156124d7576124d6611ccc565b5b60006124e585828601611d1f565b925050602083013567ffffffffffffffff81111561250657612505611cd1565b5b61251285828601611f4a565b9150509250929050565b6000806000806080858703121561253657612535611ccc565b5b600085013567ffffffffffffffff81111561255457612553611cd1565b5b61256087828801611f4a565b945050602085013567ffffffffffffffff81111561258157612580611cd1565b5b61258d87828801611f4a565b935050604085013567ffffffffffffffff8111156125ae576125ad611cd1565b5b6125ba87828801611f4a565b92505060606125cb87828801611d55565b91505092959194509250565b6125e081611d34565b82525050565b60006020820190506125fb60008301846125d7565b92915050565b600082825260208201905092915050565b600061261d82612234565b6126278185612601565b9350612637818560208601612250565b61264081611d6f565b840191505092915050565b600060208201905081810360008301526126658184612612565b905092915050565b600060ff82169050919050565b6126838161266d565b811461268e57600080fd5b50565b6000813590506126a08161267a565b92915050565b600080600080600080600060e0888a0312156126c5576126c4611ccc565b5b600088013567ffffffffffffffff8111156126e3576126e2611cd1565b5b6126ef8a828b01611f4a565b97505060206127008a828b01611d55565b965050604088013567ffffffffffffffff81111561272157612720611cd1565b5b61272d8a828b01611f4a565b955050606088013567ffffffffffffffff81111561274e5761274d611cd1565b5b61275a8a828b01611f4a565b945050608088013567ffffffffffffffff81111561277b5761277a611cd1565b5b6127878a828b01611f4a565b93505060a06127988a828b01612691565b92505060c06127a98a828b01611d55565b91505092959891949750929550565b6127c181611cf6565b82525050565b60006020820190506127dc60008301846127b8565b92915050565b7f4e487b7100000000000000000000000000000000000000000000000000000000600052601160045260246000fd5b600061281c82611d34565b91507fffffffffffffffffffffffffffffffffffffffffffffffffffffffffffffffff820361284e5761284d6127e2565b5b600182019050919050565b7f4e487b7100000000000000000000000000000000000000000000000000000000600052602260045260246000fd5b600060028204905060018216806128a057607f821691505b6020821081036128b3576128b2612859565b5b50919050565b60008190508160005260206000209050919050565b60006020601f8301049050919050565b600082821b905092915050565b60006008830261291b7fffffffffffffffffffffffffffffffffffffffffffffffffffffffffffffffff826128de565b61292586836128de565b95508019841693508086168417925050509392505050565b6000819050919050565b600061296261295d61295884611d34565b61293d565b611d34565b9050919050565b6000819050919050565b61297c83612947565b61299061298882612969565b8484546128eb565b825550505050565b600090565b6129a5612998565b6129b0818484612973565b505050565b5b818110156129d4576129c960008261299d565b6001810190506129b6565b5050565b601f821115612a19576129ea816128b9565b6129f3846128ce565b81016020851015612a02578190505b612a16612a0e856128ce565b8301826129b5565b50505b505050565b600082821c905092915050565b6000612a3c60001984600802612a1e565b1980831691505092915050565b6000612a558383612a2b565b9150826002028217905092915050565b612a6e82612234565b67ffffffffffffffff811115612a8757612a86611d80565b5b612a918254612888565b612a9c8282856129d8565b600060209050601f831160018114612acf5760008415612abd578287015190505b612ac78582612a49565b865550612b2f565b601f198416612add866128b9565b60005b82811015612b0557848901518255600182019150602085019450602081019050612ae0565b86831015612b225784890151612b1e601f891682612a2b565b8355505b6001600288020188555050505b505050505050565b7f4e487b7100000000000000000000000000000000000000000000000000000000600052603260045260246000fd5b7f5269646520616c72656164792066756c6c000000000000000000000000000000600082015250565b6000612b9c601183612601565b9150612ba782612b66565b602082019050919050565b60006020820190508181036000830152612bcb81612b8f565b9050919050565b6000612bdd82611d34565b9150612be883611d34565b9250828201905080821115612c0057612bff6127e2565b5b92915050565b6000612c1182611d34565b9150612c1c83611d34565b9250828203905081811115612c3457612c336127e2565b5b92915050565b7f5061796d656e7420746f20447269766572204661696c65640000000000000000600082015250565b6000612c70601883612601565b9150612c7b82612c3a565b602082019050919050565b60006020820190508181036000830152612c9f81612c63565b905091905056fea2646970667358221220ced6ef3abc98f67e1263e086034e065feac01dda930c4db3d957f6350648712f64736f6c63430008130033",
  "linkReferences": {},
  "deployedLinkReferences": {}
}