{
  "_format": "hh-sol-artifact-1",
  "contractName": "Carpooling",
  "sourceName": "contracts/Carpooling.sol",
  "abi": [
    {
      "anonymous": false,
      "inputs": [
        {
          "indexed": false,
          "internalType": "address",
          "name": "_driverID",
          "type": "address"
        }
      ],
      "name": "DriverRegistered",
      "type": "event"
    },
    {
      "stateMutability": "nonpayable",
      "type": "fallback"
    },
    {
      "inputs": [
        {
          "internalType": "address",
          "name": "PID",
          "type": "address"
        },
        {
          "internalType": "string",
          "name": "response",
          "type": "string"
        }
      ],
      "name": "addReview",
      "outputs": [],
      "stateMutability": "nonpayable",
      "type": "function"
    },
    {
      "inputs": [
        {
          "internalType": "address",
          "name": "driver",
          "type": "address"
        },
        {
          "internalType": "uint256",
          "name": "_rideID",
          "type": "uint256"
        }
      ],
      "name": "addUserToRide",
      "outputs": [],
      "stateMutability": "payable",
      "type": "function"
    },
    {
      "inputs": [],
      "name": "connectionStatus",
      "outputs": [
        {
          "internalType": "string",
          "name": "",
          "type": "string"
        }
      ],
      "stateMutability": "pure",
      "type": "function"
    },
    {
      "inputs": [
        {
          "internalType": "address",
          "name": "_driverID",
          "type": "address"
        },
        {
          "internalType": "uint256",
          "name": "_rideId",
          "type": "uint256"
        }
      ],
      "name": "endRide",
      "outputs": [],
      "stateMutability": "payable",
      "type": "function"
    },
    {
      "inputs": [
        {
          "internalType": "address",
          "name": "_driverID",
          "type": "address"
        }
      ],
      "name": "getActiveRides",
      "outputs": [
        {
          "components": [
            {
              "internalType": "uint256",
              "name": "RID",
              "type": "uint256"
            },
            {
              "internalType": "address",
              "name": "driverID",
              "type": "address"
            },
            {
              "internalType": "address[]",
              "name": "usersID",
              "type": "address[]"
            },
            {
              "internalType": "string",
              "name": "from",
              "type": "string"
            },
            {
              "internalType": "string",
              "name": "to",
              "type": "string"
            },
            {
              "internalType": "bool",
              "name": "active",
              "type": "bool"
            },
            {
              "internalType": "uint256",
              "name": "totalCharge",
              "type": "uint256"
            },
            {
              "internalType": "bool",
              "name": "paid",
              "type": "bool"
            },
            {
              "internalType": "uint256",
              "name": "startTimestamp",
              "type": "uint256"
            },
            {
              "internalType": "uint256",
              "name": "endTimestamp",
              "type": "uint256"
            },
            {
              "internalType": "uint256",
              "name": "availableSeats",
              "type": "uint256"
            }
          ],
          "internalType": "struct Carpooling.Ride[]",
          "name": "",
          "type": "tuple[]"
        }
      ],
      "stateMutability": "view",
      "type": "function"
    },
    {
      "inputs": [],
      "name": "getCarDetails",
      "outputs": [
        {
          "components": [
            {
              "internalType": "uint256",
              "name": "CID",
              "type": "uint256"
            },
            {
              "internalType": "string",
              "name": "name",
              "type": "string"
            },
            {
              "internalType": "address",
              "name": "ownerID",
              "type": "address"
            },
            {
              "internalType": "string",
              "name": "noPlate",
              "type": "string"
            },
            {
              "internalType": "string",
              "name": "color",
              "type": "string"
            },
            {
              "internalType": "uint256",
              "name": "charge",
              "type": "uint256"
            },
            {
              "internalType": "uint256",
              "name": "seats",
              "type": "uint256"
            }
          ],
          "internalType": "struct Carpooling.Car",
          "name": "",
          "type": "tuple"
        }
      ],
      "stateMutability": "view",
      "type": "function"
    },
    {
      "inputs": [
        {
          "internalType": "address",
          "name": "_driverID",
          "type": "address"
        }
      ],
      "name": "getRidesOfDriver",
      "outputs": [
        {
          "components": [
            {
              "internalType": "uint256",
              "name": "RID",
              "type": "uint256"
            },
            {
              "internalType": "address",
              "name": "driverID",
              "type": "address"
            },
            {
              "internalType": "address[]",
              "name": "usersID",
              "type": "address[]"
            },
            {
              "internalType": "string",
              "name": "from",
              "type": "string"
            },
            {
              "internalType": "string",
              "name": "to",
              "type": "string"
            },
            {
              "internalType": "bool",
              "name": "active",
              "type": "bool"
            },
            {
              "internalType": "uint256",
              "name": "totalCharge",
              "type": "uint256"
            },
            {
              "internalType": "bool",
              "name": "paid",
              "type": "bool"
            },
            {
              "internalType": "uint256",
              "name": "startTimestamp",
              "type": "uint256"
            },
            {
              "internalType": "uint256",
              "name": "endTimestamp",
              "type": "uint256"
            },
            {
              "internalType": "uint256",
              "name": "availableSeats",
              "type": "uint256"
            }
          ],
          "internalType": "struct Carpooling.Ride[]",
          "name": "",
          "type": "tuple[]"
        }
      ],
      "stateMutability": "view",
      "type": "function"
    },
    {
      "inputs": [],
      "name": "isDriverRegistered",
      "outputs": [
        {
          "internalType": "bool",
          "name": "",
          "type": "bool"
        }
      ],
      "stateMutability": "view",
      "type": "function"
    },
    {
      "inputs": [
        {
          "internalType": "string",
          "name": "_name",
          "type": "string"
        },
        {
          "internalType": "string",
          "name": "_noPlate",
          "type": "string"
        },
        {
          "internalType": "string",
          "name": "_color",
          "type": "string"
        },
        {
          "internalType": "uint256",
          "name": "_charge",
          "type": "uint256"
        }
      ],
      "name": "registerCar",
      "outputs": [
        {
          "internalType": "uint256",
          "name": "_cid",
          "type": "uint256"
        }
      ],
      "stateMutability": "nonpayable",
      "type": "function"
    },
    {
      "inputs": [
        {
          "internalType": "string",
          "name": "_name",
          "type": "string"
        },
        {
          "internalType": "uint256",
          "name": "_phoneNo",
          "type": "uint256"
        },
        {
          "internalType": "string",
          "name": "_email",
          "type": "string"
        },
        {
          "internalType": "string",
          "name": "_docsId",
          "type": "string"
        },
        {
          "internalType": "string",
          "name": "_livingAddress",
          "type": "string"
        },
        {
          "internalType": "uint256",
          "name": "_pincode",
          "type": "uint256"
        }
      ],
      "name": "registerDriver",
      "outputs": [
        {
          "internalType": "address",
          "name": "_did",
          "type": "address"
        }
      ],
      "stateMutability": "nonpayable",
      "type": "function"
    },
    {
      "inputs": [
        {
          "internalType": "uint256",
          "name": "seats",
          "type": "uint256"
        },
        {
          "internalType": "string",
          "name": "_from",
          "type": "string"
        },
        {
          "internalType": "string",
          "name": "_to",
          "type": "string"
        },
        {
          "internalType": "uint256",
          "name": "_totalCharge",
          "type": "uint256"
        },
        {
          "internalType": "uint256",
          "name": "_startTimestamp",
          "type": "uint256"
        },
        {
          "internalType": "uint256",
          "name": "_endTimestamp",
          "type": "uint256"
        }
      ],
      "name": "registerRide",
      "outputs": [],
      "stateMutability": "nonpayable",
      "type": "function"
    },
    {
      "inputs": [
        {
          "internalType": "string",
          "name": "_name",
          "type": "string"
        }
      ],
      "name": "registerUser",
      "outputs": [],
      "stateMutability": "nonpayable",
      "type": "function"
    },
    {
      "inputs": [
        {
          "internalType": "address",
          "name": "_driverID",
          "type": "address"
        },
        {
          "internalType": "uint256",
          "name": "_rideId",
          "type": "uint256"
        }
      ],
      "name": "startRide",
      "outputs": [],
      "stateMutability": "nonpayable",
      "type": "function"
    }
  ],
  "bytecode": "0x608060405260008055600060015534801561001957600080fd5b50613020806100296000396000f3fe6080604052600436106100c65760003560e01c806378a71cc01161007f578063989795e811610059578063989795e81461026a578063b8b8e00314610295578063ca144bc8146102be578063eb4bdad0146102fb576100c7565b806378a71cc0146101e85780637fed674d1461020457806381d7d0d91461022d576100c7565b80631ab4f0b1146100d55780633c739816146100f157806365a250061461012e5780636a383f161461016b578063704f1b9414610196578063720c6750146101bf576100c7565b5b3480156100d357600080fd5b005b6100ef60048036038101906100ea9190612153565b610326565b005b3480156100fd57600080fd5b50610118600480360381019061011391906122d9565b6104b8565b60405161012591906123e5565b60405180910390f35b34801561013a57600080fd5b5061015560048036038101906101509190612400565b610673565b6040516101629190612753565b60405180910390f35b34801561017757600080fd5b50610180610ac4565b60405161018d919061281f565b60405180910390f35b3480156101a257600080fd5b506101bd60048036038101906101b89190612841565b610d45565b005b3480156101cb57600080fd5b506101e660048036038101906101e1919061288a565b610dfd565b005b61020260048036038101906101fd9190612153565b610ef3565b005b34801561021057600080fd5b5061022b60048036038101906102269190612153565b610fbc565b005b34801561023957600080fd5b50610254600480360381019061024f91906128e6565b610fcc565b60405161026191906129b0565b60405180910390f35b34801561027657600080fd5b5061027f61114e565b60405161028c91906129da565b60405180910390f35b3480156102a157600080fd5b506102bc60048036038101906102b791906129f5565b611251565b005b3480156102ca57600080fd5b506102e560048036038101906102e09190612400565b611499565b6040516102f29190612753565b60405180910390f35b34801561030757600080fd5b506103106117a8565b60405161031d9190612b04565b60405180910390f35b6000600560008473ffffffffffffffffffffffffffffffffffffffff1673ffffffffffffffffffffffffffffffffffffffff168152602001908152602001600020828154811061037957610378612b26565b5b90600052602060002090600b02019050600081600a0154116103d0576040517f08c379a00000000000000000000000000000000000000000000000000000000081526004016103c790612ba1565b60405180910390fd5b6000349050600033905082600201819080600181540180825580915050600190039060005260206000200160009091909190916101000a81548173ffffffffffffffffffffffffffffffffffffffff021916908373ffffffffffffffffffffffffffffffffffffffff16021790555081600760008773ffffffffffffffffffffffffffffffffffffffff1673ffffffffffffffffffffffffffffffffffffffff168152602001908152602001600020600082825461048e9190612bf0565b92505081905550600183600a0160008282546104aa9190612c24565b925050819055505050505050565b60006104c2611ed9565b6040518061012001604052803373ffffffffffffffffffffffffffffffffffffffff16815260200189815260200188815260200187815260200186815260200160001515815260200160008152602001858152602001848152509050600281908060018154018082558091505060019003906000526020600020906009020160009091909190915060008201518160000160006101000a81548173ffffffffffffffffffffffffffffffffffffffff021916908373ffffffffffffffffffffffffffffffffffffffff16021790555060208201518160010190816105a69190612e64565b506040820151816002015560608201518160030190816105c69190612e64565b5060808201518160040190816105dc9190612e64565b5060a08201518160050160006101000a81548160ff02191690831515021790555060c0820151816006015560e082015181600701908161061c9190612e64565b5061010082015181600801555050806000015191507fbe5e7a1c543800c6abb49749a131598b050660d403a09b2e31318c2048c00d748260405161066091906123e5565b60405180910390a1509695505050505050565b60606000600560008473ffffffffffffffffffffffffffffffffffffffff1673ffffffffffffffffffffffffffffffffffffffff168152602001908152602001600020805480602002602001604051908101604052809291908181526020016000905b8282101561097957838290600052602060002090600b020160405180610160016040529081600082015481526020016001820160009054906101000a900473ffffffffffffffffffffffffffffffffffffffff1673ffffffffffffffffffffffffffffffffffffffff1673ffffffffffffffffffffffffffffffffffffffff168152602001600282018054806020026020016040519081016040528092919081815260200182805480156107df57602002820191906000526020600020905b8160009054906101000a900473ffffffffffffffffffffffffffffffffffffffff1673ffffffffffffffffffffffffffffffffffffffff1681526020019060010190808311610795575b505050505081526020016003820180546107f890612c87565b80601f016020809104026020016040519081016040528092919081815260200182805461082490612c87565b80156108715780601f1061084657610100808354040283529160200191610871565b820191906000526020600020905b81548152906001019060200180831161085457829003601f168201915b5050505050815260200160048201805461088a90612c87565b80601f01602080910402602001604051908101604052809291908181526020018280546108b690612c87565b80156109035780601f106108d857610100808354040283529160200191610903565b820191906000526020600020905b8154815290600101906020018083116108e657829003601f168201915b505050505081526020016005820160009054906101000a900460ff16151515158152602001600682015481526020016007820160009054906101000a900460ff161515151581526020016008820154815260200160098201548152602001600a82015481525050815260200190600101906106d6565b5050505090506000805b82518110156109d25782818151811061099f5761099e612b26565b5b602002602001015160a00151156109bf5781806109bb90612f36565b9250505b80806109ca90612f36565b915050610983565b5060008167ffffffffffffffff8111156109ef576109ee6121ae565b5b604051908082528060200260200182016040528015610a2857816020015b610a15611f3d565b815260200190600190039081610a0d5790505b5090506000805b8451811015610ab757848181518110610a4b57610a4a612b26565b5b602002602001015160a0015115610aa457848181518110610a6f57610a6e612b26565b5b6020026020010151838381518110610a8a57610a89612b26565b5b60200260200101819052508180610aa090612f36565b9250505b8080610aaf90612f36565b915050610a2f565b5081945050505050919050565b610acc611fb1565b600660003373ffffffffffffffffffffffffffffffffffffffff1673ffffffffffffffffffffffffffffffffffffffff1681526020019081526020016000206040518060e001604052908160008201548152602001600182018054610b3090612c87565b80601f0160208091040260200160405190810160405280929190818152602001828054610b5c90612c87565b8015610ba95780601f10610b7e57610100808354040283529160200191610ba9565b820191906000526020600020905b815481529060010190602001808311610b8c57829003601f168201915b505050505081526020016002820160009054906101000a900473ffffffffffffffffffffffffffffffffffffffff1673ffffffffffffffffffffffffffffffffffffffff1673ffffffffffffffffffffffffffffffffffffffff168152602001600382018054610c1890612c87565b80601f0160208091040260200160405190810160405280929190818152602001828054610c4490612c87565b8015610c915780601f10610c6657610100808354040283529160200191610c91565b820191906000526020600020905b815481529060010190602001808311610c7457829003601f168201915b50505050508152602001600482018054610caa90612c87565b80601f0160208091040260200160405190810160405280929190818152602001828054610cd690612c87565b8015610d235780601f10610cf857610100808354040283529160200191610d23565b820191906000526020600020905b815481529060010190602001808311610d0657829003601f168201915b5050505050815260200160058201548152602001600682015481525050905090565b600360405180604001604052803373ffffffffffffffffffffffffffffffffffffffff16815260200183815250908060018154018082558091505060019003906000526020600020906002020160009091909190915060008201518160000160006101000a81548173ffffffffffffffffffffffffffffffffffffffff021916908373ffffffffffffffffffffffffffffffffffffffff1602179055506020820151816001019081610df79190612e64565b50505050565b600460008373ffffffffffffffffffffffffffffffffffffffff1673ffffffffffffffffffffffffffffffffffffffff16815260200190815260200160002060405180604001604052808473ffffffffffffffffffffffffffffffffffffffff16815260200183815250908060018154018082558091505060019003906000526020600020906002020160009091909190915060008201518160000160006101000a81548173ffffffffffffffffffffffffffffffffffffffff021916908373ffffffffffffffffffffffffffffffffffffffff1602179055506020820151816001019081610eec9190612e64565b5050505050565b60008273ffffffffffffffffffffffffffffffffffffffff166108fc600760008673ffffffffffffffffffffffffffffffffffffffff1673ffffffffffffffffffffffffffffffffffffffff168152602001908152602001600020549081150290604051600060405180830381858888f19350505050905080610fab576040517f08c379a0000000000000000000000000000000000000000000000000000000008152600401610fa290612fca565b60405180910390fd5b610fb7838360006117e5565b505050565b610fc8828260016117e5565b5050565b6000806000815480929190610fe090612f36565b9190505550610fed611fb1565b85816020018190525060005481600001818152505033816040019073ffffffffffffffffffffffffffffffffffffffff16908173ffffffffffffffffffffffffffffffffffffffff1681525050848160600181905250838160800181905250828160a001818152505080600660003373ffffffffffffffffffffffffffffffffffffffff1673ffffffffffffffffffffffffffffffffffffffff1681526020019081526020016000206000820151816000015560208201518160010190816110b59190612e64565b5060408201518160020160006101000a81548173ffffffffffffffffffffffffffffffffffffffff021916908373ffffffffffffffffffffffffffffffffffffffff16021790555060608201518160030190816111129190612e64565b5060808201518160040190816111289190612e64565b5060a0820151816005015560c08201518160060155905050600054915050949350505050565b600080600660003373ffffffffffffffffffffffffffffffffffffffff1673ffffffffffffffffffffffffffffffffffffffff1681526020019081526020016000206000015411156111a3576001905061124e565b60005b600280549050811015611248573373ffffffffffffffffffffffffffffffffffffffff16600282815481106111de576111dd612b26565b5b906000526020600020906009020160000160009054906101000a900473ffffffffffffffffffffffffffffffffffffffff1673ffffffffffffffffffffffffffffffffffffffff160361123557600191505061124e565b808061124090612f36565b9150506111a6565b50600090505b90565b6001600081548092919061126490612f36565b9190505550600060405180610160016040528060015481526020013373ffffffffffffffffffffffffffffffffffffffff168152602001600067ffffffffffffffff8111156112b6576112b56121ae565b5b6040519080825280602002602001820160405280156112e45781602001602082028036833780820191505090505b508152602001878152602001868152602001600015158152602001858152602001600015158152602001848152602001838152602001888152509050600560003373ffffffffffffffffffffffffffffffffffffffff1673ffffffffffffffffffffffffffffffffffffffff1681526020019081526020016000208190806001815401808255809150506001900390600052602060002090600b02016000909190919091506000820151816000015560208201518160010160006101000a81548173ffffffffffffffffffffffffffffffffffffffff021916908373ffffffffffffffffffffffffffffffffffffffff16021790555060408201518160020190805190602001906113f6929190612004565b50606082015181600301908161140c9190612e64565b5060808201518160040190816114229190612e64565b5060a08201518160050160006101000a81548160ff02191690831515021790555060c0820151816006015560e08201518160070160006101000a81548160ff0219169083151502179055506101008201518160080155610120820151816009015561014082015181600a0155505050505050505050565b6060600560008373ffffffffffffffffffffffffffffffffffffffff1673ffffffffffffffffffffffffffffffffffffffff168152602001908152602001600020805480602002602001604051908101604052809291908181526020016000905b8282101561179d57838290600052602060002090600b020160405180610160016040529081600082015481526020016001820160009054906101000a900473ffffffffffffffffffffffffffffffffffffffff1673ffffffffffffffffffffffffffffffffffffffff1673ffffffffffffffffffffffffffffffffffffffff1681526020016002820180548060200260200160405190810160405280929190818152602001828054801561160357602002820191906000526020600020905b8160009054906101000a900473ffffffffffffffffffffffffffffffffffffffff1673ffffffffffffffffffffffffffffffffffffffff16815260200190600101908083116115b9575b5050505050815260200160038201805461161c90612c87565b80601f016020809104026020016040519081016040528092919081815260200182805461164890612c87565b80156116955780601f1061166a57610100808354040283529160200191611695565b820191906000526020600020905b81548152906001019060200180831161167857829003601f168201915b505050505081526020016004820180546116ae90612c87565b80601f01602080910402602001604051908101604052809291908181526020018280546116da90612c87565b80156117275780601f106116fc57610100808354040283529160200191611727565b820191906000526020600020905b81548152906001019060200180831161170a57829003601f168201915b505050505081526020016005820160009054906101000a900460ff16151515158152602001600682015481526020016007820160009054906101000a900460ff161515151581526020016008820154815260200160098201548152602001600a82015481525050815260200190600101906114fa565b505050509050919050565b60606040518060400160405280601281526020017f436f6e6e656374696f6e20537563636573730000000000000000000000000000815250905090565b6000600560008573ffffffffffffffffffffffffffffffffffffffff1673ffffffffffffffffffffffffffffffffffffffff168152602001908152602001600020805480602002602001604051908101604052809291908181526020016000905b82821015611ae957838290600052602060002090600b020160405180610160016040529081600082015481526020016001820160009054906101000a900473ffffffffffffffffffffffffffffffffffffffff1673ffffffffffffffffffffffffffffffffffffffff1673ffffffffffffffffffffffffffffffffffffffff1681526020016002820180548060200260200160405190810160405280929190818152602001828054801561194f57602002820191906000526020600020905b8160009054906101000a900473ffffffffffffffffffffffffffffffffffffffff1673ffffffffffffffffffffffffffffffffffffffff1681526020019060010190808311611905575b5050505050815260200160038201805461196890612c87565b80601f016020809104026020016040519081016040528092919081815260200182805461199490612c87565b80156119e15780601f106119b6576101008083540402835291602001916119e1565b820191906000526020600020905b8154815290600101906020018083116119c457829003601f168201915b505050505081526020016004820180546119fa90612c87565b80601f0160208091040260200160405190810160405280929190818152602001828054611a2690612c87565b8015611a735780601f10611a4857610100808354040283529160200191611a73565b820191906000526020600020905b815481529060010190602001808311611a5657829003601f168201915b505050505081526020016005820160009054906101000a900460ff16151515158152602001600682015481526020016007820160009054906101000a900460ff161515151581526020016008820154815260200160098201548152602001600a8201548152505081526020019060010190611846565b505050509050611af7611f3d565b60005b8251811015611e975784838281518110611b1757611b16612b26565b5b60200260200101516000015103611e845783600560008873ffffffffffffffffffffffffffffffffffffffff1673ffffffffffffffffffffffffffffffffffffffff1681526020019081526020016000208281548110611b7a57611b79612b26565b5b90600052602060002090600b020160050160006101000a81548160ff021916908315150217905550600560008773ffffffffffffffffffffffffffffffffffffffff1673ffffffffffffffffffffffffffffffffffffffff1681526020019081526020016000208181548110611bf357611bf2612b26565b5b90600052602060002090600b020160405180610160016040529081600082015481526020016001820160009054906101000a900473ffffffffffffffffffffffffffffffffffffffff1673ffffffffffffffffffffffffffffffffffffffff1673ffffffffffffffffffffffffffffffffffffffff16815260200160028201805480602002602001604051908101604052809291908181526020018280548015611cf257602002820191906000526020600020905b8160009054906101000a900473ffffffffffffffffffffffffffffffffffffffff1673ffffffffffffffffffffffffffffffffffffffff1681526020019060010190808311611ca8575b50505050508152602001600382018054611d0b90612c87565b80601f0160208091040260200160405190810160405280929190818152602001828054611d3790612c87565b8015611d845780601f10611d5957610100808354040283529160200191611d84565b820191906000526020600020905b815481529060010190602001808311611d6757829003601f168201915b50505050508152602001600482018054611d9d90612c87565b80601f0160208091040260200160405190810160405280929190818152602001828054611dc990612c87565b8015611e165780601f10611deb57610100808354040283529160200191611e16565b820191906000526020600020905b815481529060010190602001808311611df957829003601f168201915b505050505081526020016005820160009054906101000a900460ff16151515158152602001600682015481526020016007820160009054906101000a900460ff161515151581526020016008820154815260200160098201548152602001600a820154815250509150611e97565b8080611e8f90612f36565b915050611afa565b50600081610120015114611ec65760018160e00190151590811515815250504281610120018181525050611ed2565b42816101000181815250505b5050505050565b604051806101200160405280600073ffffffffffffffffffffffffffffffffffffffff168152602001606081526020016000815260200160608152602001606081526020016000151581526020016000815260200160608152602001600081525090565b60405180610160016040528060008152602001600073ffffffffffffffffffffffffffffffffffffffff168152602001606081526020016060815260200160608152602001600015158152602001600081526020016000151581526020016000815260200160008152602001600081525090565b6040518060e001604052806000815260200160608152602001600073ffffffffffffffffffffffffffffffffffffffff168152602001606081526020016060815260200160008152602001600081525090565b82805482825590600052602060002090810192821561207d579160200282015b8281111561207c5782518260006101000a81548173ffffffffffffffffffffffffffffffffffffffff021916908373ffffffffffffffffffffffffffffffffffffffff16021790555091602001919060010190612024565b5b50905061208a919061208e565b5090565b5b808211156120a757600081600090555060010161208f565b5090565b6000604051905090565b600080fd5b600080fd5b600073ffffffffffffffffffffffffffffffffffffffff82169050919050565b60006120ea826120bf565b9050919050565b6120fa816120df565b811461210557600080fd5b50565b600081359050612117816120f1565b92915050565b6000819050919050565b6121308161211d565b811461213b57600080fd5b50565b60008135905061214d81612127565b92915050565b6000806040838503121561216a576121696120b5565b5b600061217885828601612108565b92505060206121898582860161213e565b9150509250929050565b600080fd5b600080fd5b6000601f19601f8301169050919050565b7f4e487b7100000000000000000000000000000000000000000000000000000000600052604160045260246000fd5b6121e68261219d565b810181811067ffffffffffffffff82111715612205576122046121ae565b5b80604052505050565b60006122186120ab565b905061222482826121dd565b919050565b600067ffffffffffffffff821115612244576122436121ae565b5b61224d8261219d565b9050602081019050919050565b82818337600083830152505050565b600061227c61227784612229565b61220e565b90508281526020810184848401111561229857612297612198565b5b6122a384828561225a565b509392505050565b600082601f8301126122c0576122bf612193565b5b81356122d0848260208601612269565b91505092915050565b60008060008060008060c087890312156122f6576122f56120b5565b5b600087013567ffffffffffffffff811115612314576123136120ba565b5b61232089828a016122ab565b965050602061233189828a0161213e565b955050604087013567ffffffffffffffff811115612352576123516120ba565b5b61235e89828a016122ab565b945050606087013567ffffffffffffffff81111561237f5761237e6120ba565b5b61238b89828a016122ab565b935050608087013567ffffffffffffffff8111156123ac576123ab6120ba565b5b6123b889828a016122ab565b92505060a06123c989828a0161213e565b9150509295509295509295565b6123df816120df565b82525050565b60006020820190506123fa60008301846123d6565b92915050565b600060208284031215612416576124156120b5565b5b600061242484828501612108565b91505092915050565b600081519050919050565b600082825260208201905092915050565b6000819050602082019050919050565b6124628161211d565b82525050565b612471816120df565b82525050565b600081519050919050565b600082825260208201905092915050565b6000819050602082019050919050565b60006124af8383612468565b60208301905092915050565b6000602082019050919050565b60006124d382612477565b6124dd8185612482565b93506124e883612493565b8060005b8381101561251957815161250088826124a3565b975061250b836124bb565b9250506001810190506124ec565b5085935050505092915050565b600081519050919050565b600082825260208201905092915050565b60005b83811015612560578082015181840152602081019050612545565b60008484015250505050565b600061257782612526565b6125818185612531565b9350612591818560208601612542565b61259a8161219d565b840191505092915050565b60008115159050919050565b6125ba816125a5565b82525050565b6000610160830160008301516125d96000860182612459565b5060208301516125ec6020860182612468565b506040830151848203604086015261260482826124c8565b9150506060830151848203606086015261261e828261256c565b91505060808301518482036080860152612638828261256c565b91505060a083015161264d60a08601826125b1565b5060c083015161266060c0860182612459565b5060e083015161267360e08601826125b1565b50610100830151612688610100860182612459565b5061012083015161269d610120860182612459565b506101408301516126b2610140860182612459565b508091505092915050565b60006126c983836125c0565b905092915050565b6000602082019050919050565b60006126e98261242d565b6126f38185612438565b93508360208202850161270585612449565b8060005b85811015612741578484038952815161272285826126bd565b945061272d836126d1565b925060208a01995050600181019050612709565b50829750879550505050505092915050565b6000602082019050818103600083015261276d81846126de565b905092915050565b600060e08301600083015161278d6000860182612459565b50602083015184820360208601526127a5828261256c565b91505060408301516127ba6040860182612468565b50606083015184820360608601526127d2828261256c565b915050608083015184820360808601526127ec828261256c565b91505060a083015161280160a0860182612459565b5060c083015161281460c0860182612459565b508091505092915050565b600060208201905081810360008301526128398184612775565b905092915050565b600060208284031215612857576128566120b5565b5b600082013567ffffffffffffffff811115612875576128746120ba565b5b612881848285016122ab565b91505092915050565b600080604083850312156128a1576128a06120b5565b5b60006128af85828601612108565b925050602083013567ffffffffffffffff8111156128d0576128cf6120ba565b5b6128dc858286016122ab565b9150509250929050565b60008060008060808587031215612900576128ff6120b5565b5b600085013567ffffffffffffffff81111561291e5761291d6120ba565b5b61292a878288016122ab565b945050602085013567ffffffffffffffff81111561294b5761294a6120ba565b5b612957878288016122ab565b935050604085013567ffffffffffffffff811115612978576129776120ba565b5b612984878288016122ab565b92505060606129958782880161213e565b91505092959194509250565b6129aa8161211d565b82525050565b60006020820190506129c560008301846129a1565b92915050565b6129d4816125a5565b82525050565b60006020820190506129ef60008301846129cb565b92915050565b60008060008060008060c08789031215612a1257612a116120b5565b5b6000612a2089828a0161213e565b965050602087013567ffffffffffffffff811115612a4157612a406120ba565b5b612a4d89828a016122ab565b955050604087013567ffffffffffffffff811115612a6e57612a6d6120ba565b5b612a7a89828a016122ab565b9450506060612a8b89828a0161213e565b9350506080612a9c89828a0161213e565b92505060a0612aad89828a0161213e565b9150509295509295509295565b600082825260208201905092915050565b6000612ad682612526565b612ae08185612aba565b9350612af0818560208601612542565b612af98161219d565b840191505092915050565b60006020820190508181036000830152612b1e8184612acb565b905092915050565b7f4e487b7100000000000000000000000000000000000000000000000000000000600052603260045260246000fd5b7f5269646520616c72656164792066756c6c000000000000000000000000000000600082015250565b6000612b8b601183612aba565b9150612b9682612b55565b602082019050919050565b60006020820190508181036000830152612bba81612b7e565b9050919050565b7f4e487b7100000000000000000000000000000000000000000000000000000000600052601160045260246000fd5b6000612bfb8261211d565b9150612c068361211d565b9250828201905080821115612c1e57612c1d612bc1565b5b92915050565b6000612c2f8261211d565b9150612c3a8361211d565b9250828203905081811115612c5257612c51612bc1565b5b92915050565b7f4e487b7100000000000000000000000000000000000000000000000000000000600052602260045260246000fd5b60006002820490506001821680612c9f57607f821691505b602082108103612cb257612cb1612c58565b5b50919050565b60008190508160005260206000209050919050565b60006020601f8301049050919050565b600082821b905092915050565b600060088302612d1a7fffffffffffffffffffffffffffffffffffffffffffffffffffffffffffffffff82612cdd565b612d248683612cdd565b95508019841693508086168417925050509392505050565b6000819050919050565b6000612d61612d5c612d578461211d565b612d3c565b61211d565b9050919050565b6000819050919050565b612d7b83612d46565b612d8f612d8782612d68565b848454612cea565b825550505050565b600090565b612da4612d97565b612daf818484612d72565b505050565b5b81811015612dd357612dc8600082612d9c565b600181019050612db5565b5050565b601f821115612e1857612de981612cb8565b612df284612ccd565b81016020851015612e01578190505b612e15612e0d85612ccd565b830182612db4565b50505b505050565b600082821c905092915050565b6000612e3b60001984600802612e1d565b1980831691505092915050565b6000612e548383612e2a565b9150826002028217905092915050565b612e6d82612526565b67ffffffffffffffff811115612e8657612e856121ae565b5b612e908254612c87565b612e9b828285612dd7565b600060209050601f831160018114612ece5760008415612ebc578287015190505b612ec68582612e48565b865550612f2e565b601f198416612edc86612cb8565b60005b82811015612f0457848901518255600182019150602085019450602081019050612edf565b86831015612f215784890151612f1d601f891682612e2a565b8355505b6001600288020188555050505b505050505050565b6000612f418261211d565b91507fffffffffffffffffffffffffffffffffffffffffffffffffffffffffffffffff8203612f7357612f72612bc1565b5b600182019050919050565b7f5061796d656e7420746f20447269766572204661696c65640000000000000000600082015250565b6000612fb4601883612aba565b9150612fbf82612f7e565b602082019050919050565b60006020820190508181036000830152612fe381612fa7565b905091905056fea26469706673582212208f4f1adab0d81c2d12968a0a974bc28d9d7ef35bb8e7920baf4e160943ba2cb964736f6c63430008130033",
  "linkReferences": {},
  "deployedLinkReferences": {}
}