{
  "_format": "hh-sol-artifact-1",
  "contractName": "Carpooling",
  "sourceName": "contracts/Carpooling.sol",
  "abi": [
    {
      "anonymous": false,
      "inputs": [
        {
          "indexed": false,
          "internalType": "address",
          "name": "_driverID",
          "type": "address"
        }
      ],
      "name": "DriverRegistered",
      "type": "event"
    },
    {
      "stateMutability": "nonpayable",
      "type": "fallback"
    },
    {
      "inputs": [
        {
          "internalType": "address",
          "name": "PID",
          "type": "address"
        },
        {
          "internalType": "string",
          "name": "response",
          "type": "string"
        }
      ],
      "name": "addReview",
      "outputs": [],
      "stateMutability": "nonpayable",
      "type": "function"
    },
    {
      "inputs": [
        {
          "internalType": "address",
          "name": "driver",
          "type": "address"
        },
        {
          "internalType": "uint256",
          "name": "_rideID",
          "type": "uint256"
        }
      ],
      "name": "addUserToRide",
      "outputs": [],
      "stateMutability": "payable",
      "type": "function"
    },
    {
      "inputs": [],
      "name": "connectionStatus",
      "outputs": [
        {
          "internalType": "string",
          "name": "",
          "type": "string"
        }
      ],
      "stateMutability": "pure",
      "type": "function"
    },
    {
      "inputs": [
        {
          "internalType": "address",
          "name": "_driverID",
          "type": "address"
        },
        {
          "internalType": "uint256",
          "name": "_rideId",
          "type": "uint256"
        }
      ],
      "name": "endRide",
      "outputs": [],
      "stateMutability": "payable",
      "type": "function"
    },
    {
      "inputs": [],
      "name": "getActiveRides",
      "outputs": [
        {
          "components": [
            {
              "internalType": "uint256",
              "name": "RID",
              "type": "uint256"
            },
            {
              "internalType": "address",
              "name": "driverID",
              "type": "address"
            },
            {
              "internalType": "address[]",
              "name": "usersID",
              "type": "address[]"
            },
            {
              "internalType": "string",
              "name": "from",
              "type": "string"
            },
            {
              "internalType": "string",
              "name": "to",
              "type": "string"
            },
            {
              "internalType": "bool",
              "name": "active",
              "type": "bool"
            },
            {
              "internalType": "uint256",
              "name": "totalCharge",
              "type": "uint256"
            },
            {
              "internalType": "bool",
              "name": "paid",
              "type": "bool"
            },
            {
              "internalType": "uint256",
              "name": "startTimestamp",
              "type": "uint256"
            },
            {
              "internalType": "uint256",
              "name": "endTimestamp",
              "type": "uint256"
            },
            {
              "internalType": "uint256",
              "name": "availableSeats",
              "type": "uint256"
            }
          ],
          "internalType": "struct Carpooling.Ride[]",
          "name": "",
          "type": "tuple[]"
        }
      ],
      "stateMutability": "view",
      "type": "function"
    },
    {
      "inputs": [],
      "name": "getCarDetails",
      "outputs": [
        {
          "components": [
            {
              "internalType": "uint256",
              "name": "CID",
              "type": "uint256"
            },
            {
              "internalType": "string",
              "name": "name",
              "type": "string"
            },
            {
              "internalType": "address",
              "name": "ownerID",
              "type": "address"
            },
            {
              "internalType": "string",
              "name": "noPlate",
              "type": "string"
            },
            {
              "internalType": "string",
              "name": "color",
              "type": "string"
            },
            {
              "internalType": "uint256",
              "name": "charge",
              "type": "uint256"
            },
            {
              "internalType": "uint256",
              "name": "seats",
              "type": "uint256"
            }
          ],
          "internalType": "struct Carpooling.Car",
          "name": "",
          "type": "tuple"
        }
      ],
      "stateMutability": "view",
      "type": "function"
    },
    {
      "inputs": [],
      "name": "getLastRideIdOfDriver",
      "outputs": [
        {
          "internalType": "uint256",
          "name": "",
          "type": "uint256"
        }
      ],
      "stateMutability": "view",
      "type": "function"
    },
    {
      "inputs": [
        {
          "internalType": "address",
          "name": "_driverID",
          "type": "address"
        }
      ],
      "name": "getRidesOfDriver",
      "outputs": [
        {
          "components": [
            {
              "internalType": "uint256",
              "name": "RID",
              "type": "uint256"
            },
            {
              "internalType": "address",
              "name": "driverID",
              "type": "address"
            },
            {
              "internalType": "address[]",
              "name": "usersID",
              "type": "address[]"
            },
            {
              "internalType": "string",
              "name": "from",
              "type": "string"
            },
            {
              "internalType": "string",
              "name": "to",
              "type": "string"
            },
            {
              "internalType": "bool",
              "name": "active",
              "type": "bool"
            },
            {
              "internalType": "uint256",
              "name": "totalCharge",
              "type": "uint256"
            },
            {
              "internalType": "bool",
              "name": "paid",
              "type": "bool"
            },
            {
              "internalType": "uint256",
              "name": "startTimestamp",
              "type": "uint256"
            },
            {
              "internalType": "uint256",
              "name": "endTimestamp",
              "type": "uint256"
            },
            {
              "internalType": "uint256",
              "name": "availableSeats",
              "type": "uint256"
            }
          ],
          "internalType": "struct Carpooling.Ride[]",
          "name": "",
          "type": "tuple[]"
        }
      ],
      "stateMutability": "view",
      "type": "function"
    },
    {
      "inputs": [],
      "name": "isDriverRegistered",
      "outputs": [
        {
          "internalType": "bool",
          "name": "",
          "type": "bool"
        }
      ],
      "stateMutability": "view",
      "type": "function"
    },
    {
      "inputs": [
        {
          "internalType": "string",
          "name": "_name",
          "type": "string"
        },
        {
          "internalType": "string",
          "name": "_noPlate",
          "type": "string"
        },
        {
          "internalType": "string",
          "name": "_color",
          "type": "string"
        },
        {
          "internalType": "uint256",
          "name": "_charge",
          "type": "uint256"
        }
      ],
      "name": "registerCar",
      "outputs": [
        {
          "internalType": "uint256",
          "name": "_cid",
          "type": "uint256"
        }
      ],
      "stateMutability": "nonpayable",
      "type": "function"
    },
    {
      "inputs": [
        {
          "internalType": "string",
          "name": "_name",
          "type": "string"
        },
        {
          "internalType": "uint256",
          "name": "_phoneNo",
          "type": "uint256"
        },
        {
          "internalType": "string",
          "name": "_email",
          "type": "string"
        },
        {
          "internalType": "string",
          "name": "_docsId",
          "type": "string"
        },
        {
          "internalType": "string",
          "name": "_livingAddress",
          "type": "string"
        },
        {
          "internalType": "uint256",
          "name": "_pincode",
          "type": "uint256"
        }
      ],
      "name": "registerDriver",
      "outputs": [
        {
          "internalType": "address",
          "name": "_did",
          "type": "address"
        }
      ],
      "stateMutability": "nonpayable",
      "type": "function"
    },
    {
      "inputs": [
        {
          "internalType": "uint256",
          "name": "seats",
          "type": "uint256"
        },
        {
          "internalType": "string",
          "name": "_from",
          "type": "string"
        },
        {
          "internalType": "string",
          "name": "_to",
          "type": "string"
        },
        {
          "internalType": "uint256",
          "name": "_totalCharge",
          "type": "uint256"
        },
        {
          "internalType": "uint256",
          "name": "_startTimestamp",
          "type": "uint256"
        },
        {
          "internalType": "uint256",
          "name": "_endTimestamp",
          "type": "uint256"
        }
      ],
      "name": "registerRide",
      "outputs": [],
      "stateMutability": "nonpayable",
      "type": "function"
    },
    {
      "inputs": [
        {
          "internalType": "string",
          "name": "_name",
          "type": "string"
        }
      ],
      "name": "registerUser",
      "outputs": [],
      "stateMutability": "nonpayable",
      "type": "function"
    },
    {
      "inputs": [
        {
          "internalType": "uint256",
          "name": "_rideId",
          "type": "uint256"
        }
      ],
      "name": "startRide",
      "outputs": [],
      "stateMutability": "nonpayable",
      "type": "function"
    }
  ],
  "bytecode": "0x608060405260008055600060015534801561001957600080fd5b5061310d806100296000396000f3fe6080604052600436106100e15760003560e01c806381d7d0d91161007f578063b8b8e00311610059578063b8b8e003146102a0578063ca144bc8146102c9578063e9c14b1e14610306578063eb4bdad01461032f576100e2565b806381d7d0d91461020d578063989795e81461024a578063a1b260c314610275576100e2565b80636a383f16116100bb5780636a383f1614610174578063704f1b941461019f578063720c6750146101c857806378a71cc0146101f1576100e2565b80630dcc2fb7146100f05780631ab4f0b11461011b5780633c73981614610137576100e2565b5b3480156100ee57600080fd5b005b3480156100fc57600080fd5b5061010561035a565b60405161011291906124de565b60405180910390f35b6101356004803603810190610130919061256c565b6107a9565b005b34801561014357600080fd5b5061015e600480360381019061015991906126e1565b61093b565b60405161016b91906127ed565b60405180910390f35b34801561018057600080fd5b50610189610af6565b60405161019691906128b2565b60405180910390f35b3480156101ab57600080fd5b506101c660048036038101906101c191906128d4565b610d77565b005b3480156101d457600080fd5b506101ef60048036038101906101ea919061291d565b610e2f565b005b61020b6004803603810190610206919061256c565b610f25565b005b34801561021957600080fd5b50610234600480360381019061022f9190612979565b610fee565b6040516102419190612a43565b60405180910390f35b34801561025657600080fd5b5061025f611170565b60405161026c9190612a6d565b60405180910390f35b34801561028157600080fd5b5061028a611273565b6040516102979190612a43565b60405180910390f35b3480156102ac57600080fd5b506102c760048036038101906102c29190612a88565b6112ba565b005b3480156102d557600080fd5b506102f060048036038101906102eb9190612b4d565b61154a565b6040516102fd91906124de565b60405180910390f35b34801561031257600080fd5b5061032d60048036038101906103289190612b7a565b611859565b005b34801561033b57600080fd5b50610344611868565b6040516103519190612bf1565b60405180910390f35b60606000600560003373ffffffffffffffffffffffffffffffffffffffff1673ffffffffffffffffffffffffffffffffffffffff168152602001908152602001600020805480602002602001604051908101604052809291908181526020016000905b8282101561066057838290600052602060002090600b020160405180610160016040529081600082015481526020016001820160009054906101000a900473ffffffffffffffffffffffffffffffffffffffff1673ffffffffffffffffffffffffffffffffffffffff1673ffffffffffffffffffffffffffffffffffffffff168152602001600282018054806020026020016040519081016040528092919081815260200182805480156104c657602002820191906000526020600020905b8160009054906101000a900473ffffffffffffffffffffffffffffffffffffffff1673ffffffffffffffffffffffffffffffffffffffff168152602001906001019080831161047c575b505050505081526020016003820180546104df90612c42565b80601f016020809104026020016040519081016040528092919081815260200182805461050b90612c42565b80156105585780601f1061052d57610100808354040283529160200191610558565b820191906000526020600020905b81548152906001019060200180831161053b57829003601f168201915b5050505050815260200160048201805461057190612c42565b80601f016020809104026020016040519081016040528092919081815260200182805461059d90612c42565b80156105ea5780601f106105bf576101008083540402835291602001916105ea565b820191906000526020600020905b8154815290600101906020018083116105cd57829003601f168201915b505050505081526020016005820160009054906101000a900460ff16151515158152602001600682015481526020016007820160009054906101000a900460ff161515151581526020016008820154815260200160098201548152602001600a82015481525050815260200190600101906103bd565b5050505090506000805b82518110156106b95782818151811061068657610685612c73565b5b602002602001015160a00151156106a65781806106a290612cd1565b9250505b80806106b190612cd1565b91505061066a565b5060008167ffffffffffffffff8111156106d6576106d56125b6565b5b60405190808252806020026020018201604052801561070f57816020015b6106fc611f99565b8152602001906001900390816106f45790505b5090506000805b845181101561079e5784818151811061073257610731612c73565b5b602002602001015160a001511561078b5784818151811061075657610755612c73565b5b602002602001015183838151811061077157610770612c73565b5b6020026020010181905250818061078790612cd1565b9250505b808061079690612cd1565b915050610716565b508194505050505090565b6000600560008473ffffffffffffffffffffffffffffffffffffffff1673ffffffffffffffffffffffffffffffffffffffff16815260200190815260200160002082815481106107fc576107fb612c73565b5b90600052602060002090600b02019050600081600a015411610853576040517f08c379a000000000000000000000000000000000000000000000000000000000815260040161084a90612d65565b60405180910390fd5b6000349050600033905082600201819080600181540180825580915050600190039060005260206000200160009091909190916101000a81548173ffffffffffffffffffffffffffffffffffffffff021916908373ffffffffffffffffffffffffffffffffffffffff16021790555081600860008773ffffffffffffffffffffffffffffffffffffffff1673ffffffffffffffffffffffffffffffffffffffff16815260200190815260200160002060008282546109119190612d85565b92505081905550600183600a01600082825461092d9190612db9565b925050819055505050505050565b600061094561200d565b6040518061012001604052803373ffffffffffffffffffffffffffffffffffffffff16815260200189815260200188815260200187815260200186815260200160001515815260200160008152602001858152602001848152509050600281908060018154018082558091505060019003906000526020600020906009020160009091909190915060008201518160000160006101000a81548173ffffffffffffffffffffffffffffffffffffffff021916908373ffffffffffffffffffffffffffffffffffffffff1602179055506020820151816001019081610a299190612f99565b50604082015181600201556060820151816003019081610a499190612f99565b506080820151816004019081610a5f9190612f99565b5060a08201518160050160006101000a81548160ff02191690831515021790555060c0820151816006015560e0820151816007019081610a9f9190612f99565b5061010082015181600801555050806000015191507fbe5e7a1c543800c6abb49749a131598b050660d403a09b2e31318c2048c00d7482604051610ae391906127ed565b60405180910390a1509695505050505050565b610afe612071565b600660003373ffffffffffffffffffffffffffffffffffffffff1673ffffffffffffffffffffffffffffffffffffffff1681526020019081526020016000206040518060e001604052908160008201548152602001600182018054610b6290612c42565b80601f0160208091040260200160405190810160405280929190818152602001828054610b8e90612c42565b8015610bdb5780601f10610bb057610100808354040283529160200191610bdb565b820191906000526020600020905b815481529060010190602001808311610bbe57829003601f168201915b505050505081526020016002820160009054906101000a900473ffffffffffffffffffffffffffffffffffffffff1673ffffffffffffffffffffffffffffffffffffffff1673ffffffffffffffffffffffffffffffffffffffff168152602001600382018054610c4a90612c42565b80601f0160208091040260200160405190810160405280929190818152602001828054610c7690612c42565b8015610cc35780601f10610c9857610100808354040283529160200191610cc3565b820191906000526020600020905b815481529060010190602001808311610ca657829003601f168201915b50505050508152602001600482018054610cdc90612c42565b80601f0160208091040260200160405190810160405280929190818152602001828054610d0890612c42565b8015610d555780601f10610d2a57610100808354040283529160200191610d55565b820191906000526020600020905b815481529060010190602001808311610d3857829003601f168201915b5050505050815260200160058201548152602001600682015481525050905090565b600360405180604001604052803373ffffffffffffffffffffffffffffffffffffffff16815260200183815250908060018154018082558091505060019003906000526020600020906002020160009091909190915060008201518160000160006101000a81548173ffffffffffffffffffffffffffffffffffffffff021916908373ffffffffffffffffffffffffffffffffffffffff1602179055506020820151816001019081610e299190612f99565b50505050565b600460008373ffffffffffffffffffffffffffffffffffffffff1673ffffffffffffffffffffffffffffffffffffffff16815260200190815260200160002060405180604001604052808473ffffffffffffffffffffffffffffffffffffffff16815260200183815250908060018154018082558091505060019003906000526020600020906002020160009091909190915060008201518160000160006101000a81548173ffffffffffffffffffffffffffffffffffffffff021916908373ffffffffffffffffffffffffffffffffffffffff1602179055506020820151816001019081610f1e9190612f99565b5050505050565b60008273ffffffffffffffffffffffffffffffffffffffff166108fc600860008673ffffffffffffffffffffffffffffffffffffffff1673ffffffffffffffffffffffffffffffffffffffff168152602001908152602001600020549081150290604051600060405180830381858888f19350505050905080610fdd576040517f08c379a0000000000000000000000000000000000000000000000000000000008152600401610fd4906130b7565b60405180910390fd5b610fe9838360006118a5565b505050565b6000610ff8612071565b85816020018190525060005481600001818152505033816040019073ffffffffffffffffffffffffffffffffffffffff16908173ffffffffffffffffffffffffffffffffffffffff1681525050848160600181905250838160800181905250828160a001818152505080600660003373ffffffffffffffffffffffffffffffffffffffff1673ffffffffffffffffffffffffffffffffffffffff1681526020019081526020016000206000820151816000015560208201518160010190816110c09190612f99565b5060408201518160020160006101000a81548173ffffffffffffffffffffffffffffffffffffffff021916908373ffffffffffffffffffffffffffffffffffffffff160217905550606082015181600301908161111d9190612f99565b5060808201518160040190816111339190612f99565b5060a0820151816005015560c08201518160060155905050600054915060008081548092919061116290612cd1565b919050555050949350505050565b600080600660003373ffffffffffffffffffffffffffffffffffffffff1673ffffffffffffffffffffffffffffffffffffffff1681526020019081526020016000206000015411156111c55760019050611270565b60005b60028054905081101561126a573373ffffffffffffffffffffffffffffffffffffffff1660028281548110611200576111ff612c73565b5b906000526020600020906009020160000160009054906101000a900473ffffffffffffffffffffffffffffffffffffffff1673ffffffffffffffffffffffffffffffffffffffff1603611257576001915050611270565b808061126290612cd1565b9150506111c8565b50600090505b90565b6000600760003373ffffffffffffffffffffffffffffffffffffffff1673ffffffffffffffffffffffffffffffffffffffff16815260200190815260200160002054905090565b600060405180610160016040528060015481526020013373ffffffffffffffffffffffffffffffffffffffff168152602001600067ffffffffffffffff811115611307576113066125b6565b5b6040519080825280602002602001820160405280156113355781602001602082028036833780820191505090505b508152602001878152602001868152602001600015158152602001858152602001600015158152602001848152602001838152602001888152509050600560003373ffffffffffffffffffffffffffffffffffffffff1673ffffffffffffffffffffffffffffffffffffffff1681526020019081526020016000208190806001815401808255809150506001900390600052602060002090600b02016000909190919091506000820151816000015560208201518160010160006101000a81548173ffffffffffffffffffffffffffffffffffffffff021916908373ffffffffffffffffffffffffffffffffffffffff16021790555060408201518160020190805190602001906114479291906120c4565b50606082015181600301908161145d9190612f99565b5060808201518160040190816114739190612f99565b5060a08201518160050160006101000a81548160ff02191690831515021790555060c0820151816006015560e08201518160070160006101000a81548160ff0219169083151502179055506101008201518160080155610120820151816009015561014082015181600a015550508060000151600760003373ffffffffffffffffffffffffffffffffffffffff1673ffffffffffffffffffffffffffffffffffffffff168152602001908152602001600020819055506001600081548092919061153c90612cd1565b919050555050505050505050565b6060600560008373ffffffffffffffffffffffffffffffffffffffff1673ffffffffffffffffffffffffffffffffffffffff168152602001908152602001600020805480602002602001604051908101604052809291908181526020016000905b8282101561184e57838290600052602060002090600b020160405180610160016040529081600082015481526020016001820160009054906101000a900473ffffffffffffffffffffffffffffffffffffffff1673ffffffffffffffffffffffffffffffffffffffff1673ffffffffffffffffffffffffffffffffffffffff168152602001600282018054806020026020016040519081016040528092919081815260200182805480156116b457602002820191906000526020600020905b8160009054906101000a900473ffffffffffffffffffffffffffffffffffffffff1673ffffffffffffffffffffffffffffffffffffffff168152602001906001019080831161166a575b505050505081526020016003820180546116cd90612c42565b80601f01602080910402602001604051908101604052809291908181526020018280546116f990612c42565b80156117465780601f1061171b57610100808354040283529160200191611746565b820191906000526020600020905b81548152906001019060200180831161172957829003601f168201915b5050505050815260200160048201805461175f90612c42565b80601f016020809104026020016040519081016040528092919081815260200182805461178b90612c42565b80156117d85780601f106117ad576101008083540402835291602001916117d8565b820191906000526020600020905b8154815290600101906020018083116117bb57829003601f168201915b505050505081526020016005820160009054906101000a900460ff16151515158152602001600682015481526020016007820160009054906101000a900460ff161515151581526020016008820154815260200160098201548152602001600a82015481525050815260200190600101906115ab565b505050509050919050565b611865338260016118a5565b50565b60606040518060400160405280601281526020017f436f6e6e656374696f6e20537563636573730000000000000000000000000000815250905090565b6000600560008573ffffffffffffffffffffffffffffffffffffffff1673ffffffffffffffffffffffffffffffffffffffff168152602001908152602001600020805480602002602001604051908101604052809291908181526020016000905b82821015611ba957838290600052602060002090600b020160405180610160016040529081600082015481526020016001820160009054906101000a900473ffffffffffffffffffffffffffffffffffffffff1673ffffffffffffffffffffffffffffffffffffffff1673ffffffffffffffffffffffffffffffffffffffff16815260200160028201805480602002602001604051908101604052809291908181526020018280548015611a0f57602002820191906000526020600020905b8160009054906101000a900473ffffffffffffffffffffffffffffffffffffffff1673ffffffffffffffffffffffffffffffffffffffff16815260200190600101908083116119c5575b50505050508152602001600382018054611a2890612c42565b80601f0160208091040260200160405190810160405280929190818152602001828054611a5490612c42565b8015611aa15780601f10611a7657610100808354040283529160200191611aa1565b820191906000526020600020905b815481529060010190602001808311611a8457829003601f168201915b50505050508152602001600482018054611aba90612c42565b80601f0160208091040260200160405190810160405280929190818152602001828054611ae690612c42565b8015611b335780601f10611b0857610100808354040283529160200191611b33565b820191906000526020600020905b815481529060010190602001808311611b1657829003601f168201915b505050505081526020016005820160009054906101000a900460ff16151515158152602001600682015481526020016007820160009054906101000a900460ff161515151581526020016008820154815260200160098201548152602001600a8201548152505081526020019060010190611906565b505050509050611bb7611f99565b60005b8251811015611f575784838281518110611bd757611bd6612c73565b5b60200260200101516000015103611f445783600560008873ffffffffffffffffffffffffffffffffffffffff1673ffffffffffffffffffffffffffffffffffffffff1681526020019081526020016000208281548110611c3a57611c39612c73565b5b90600052602060002090600b020160050160006101000a81548160ff021916908315150217905550600560008773ffffffffffffffffffffffffffffffffffffffff1673ffffffffffffffffffffffffffffffffffffffff1681526020019081526020016000208181548110611cb357611cb2612c73565b5b90600052602060002090600b020160405180610160016040529081600082015481526020016001820160009054906101000a900473ffffffffffffffffffffffffffffffffffffffff1673ffffffffffffffffffffffffffffffffffffffff1673ffffffffffffffffffffffffffffffffffffffff16815260200160028201805480602002602001604051908101604052809291908181526020018280548015611db257602002820191906000526020600020905b8160009054906101000a900473ffffffffffffffffffffffffffffffffffffffff1673ffffffffffffffffffffffffffffffffffffffff1681526020019060010190808311611d68575b50505050508152602001600382018054611dcb90612c42565b80601f0160208091040260200160405190810160405280929190818152602001828054611df790612c42565b8015611e445780601f10611e1957610100808354040283529160200191611e44565b820191906000526020600020905b815481529060010190602001808311611e2757829003601f168201915b50505050508152602001600482018054611e5d90612c42565b80601f0160208091040260200160405190810160405280929190818152602001828054611e8990612c42565b8015611ed65780601f10611eab57610100808354040283529160200191611ed6565b820191906000526020600020905b815481529060010190602001808311611eb957829003601f168201915b505050505081526020016005820160009054906101000a900460ff16151515158152602001600682015481526020016007820160009054906101000a900460ff161515151581526020016008820154815260200160098201548152602001600a820154815250509150611f57565b8080611f4f90612cd1565b915050611bba565b50600081610120015114611f865760018160e00190151590811515815250504281610120018181525050611f92565b42816101000181815250505b5050505050565b60405180610160016040528060008152602001600073ffffffffffffffffffffffffffffffffffffffff168152602001606081526020016060815260200160608152602001600015158152602001600081526020016000151581526020016000815260200160008152602001600081525090565b604051806101200160405280600073ffffffffffffffffffffffffffffffffffffffff168152602001606081526020016000815260200160608152602001606081526020016000151581526020016000815260200160608152602001600081525090565b6040518060e001604052806000815260200160608152602001600073ffffffffffffffffffffffffffffffffffffffff168152602001606081526020016060815260200160008152602001600081525090565b82805482825590600052602060002090810192821561213d579160200282015b8281111561213c5782518260006101000a81548173ffffffffffffffffffffffffffffffffffffffff021916908373ffffffffffffffffffffffffffffffffffffffff160217905550916020019190600101906120e4565b5b50905061214a919061214e565b5090565b5b8082111561216757600081600090555060010161214f565b5090565b600081519050919050565b600082825260208201905092915050565b6000819050602082019050919050565b6000819050919050565b6121aa81612197565b82525050565b600073ffffffffffffffffffffffffffffffffffffffff82169050919050565b60006121db826121b0565b9050919050565b6121eb816121d0565b82525050565b600081519050919050565b600082825260208201905092915050565b6000819050602082019050919050565b600061222983836121e2565b60208301905092915050565b6000602082019050919050565b600061224d826121f1565b61225781856121fc565b93506122628361220d565b8060005b8381101561229357815161227a888261221d565b975061228583612235565b925050600181019050612266565b5085935050505092915050565b600081519050919050565b600082825260208201905092915050565b60005b838110156122da5780820151818401526020810190506122bf565b60008484015250505050565b6000601f19601f8301169050919050565b6000612302826122a0565b61230c81856122ab565b935061231c8185602086016122bc565b612325816122e6565b840191505092915050565b60008115159050919050565b61234581612330565b82525050565b60006101608301600083015161236460008601826121a1565b50602083015161237760208601826121e2565b506040830151848203604086015261238f8282612242565b915050606083015184820360608601526123a982826122f7565b915050608083015184820360808601526123c382826122f7565b91505060a08301516123d860a086018261233c565b5060c08301516123eb60c08601826121a1565b5060e08301516123fe60e086018261233c565b506101008301516124136101008601826121a1565b506101208301516124286101208601826121a1565b5061014083015161243d6101408601826121a1565b508091505092915050565b6000612454838361234b565b905092915050565b6000602082019050919050565b60006124748261216b565b61247e8185612176565b93508360208202850161249085612187565b8060005b858110156124cc57848403895281516124ad8582612448565b94506124b88361245c565b925060208a01995050600181019050612494565b50829750879550505050505092915050565b600060208201905081810360008301526124f88184612469565b905092915050565b6000604051905090565b600080fd5b600080fd5b61251d816121d0565b811461252857600080fd5b50565b60008135905061253a81612514565b92915050565b61254981612197565b811461255457600080fd5b50565b60008135905061256681612540565b92915050565b600080604083850312156125835761258261250a565b5b60006125918582860161252b565b92505060206125a285828601612557565b9150509250929050565b600080fd5b600080fd5b7f4e487b7100000000000000000000000000000000000000000000000000000000600052604160045260246000fd5b6125ee826122e6565b810181811067ffffffffffffffff8211171561260d5761260c6125b6565b5b80604052505050565b6000612620612500565b905061262c82826125e5565b919050565b600067ffffffffffffffff82111561264c5761264b6125b6565b5b612655826122e6565b9050602081019050919050565b82818337600083830152505050565b600061268461267f84612631565b612616565b9050828152602081018484840111156126a05761269f6125b1565b5b6126ab848285612662565b509392505050565b600082601f8301126126c8576126c76125ac565b5b81356126d8848260208601612671565b91505092915050565b60008060008060008060c087890312156126fe576126fd61250a565b5b600087013567ffffffffffffffff81111561271c5761271b61250f565b5b61272889828a016126b3565b965050602061273989828a01612557565b955050604087013567ffffffffffffffff81111561275a5761275961250f565b5b61276689828a016126b3565b945050606087013567ffffffffffffffff8111156127875761278661250f565b5b61279389828a016126b3565b935050608087013567ffffffffffffffff8111156127b4576127b361250f565b5b6127c089828a016126b3565b92505060a06127d189828a01612557565b9150509295509295509295565b6127e7816121d0565b82525050565b600060208201905061280260008301846127de565b92915050565b600060e08301600083015161282060008601826121a1565b506020830151848203602086015261283882826122f7565b915050604083015161284d60408601826121e2565b506060830151848203606086015261286582826122f7565b9150506080830151848203608086015261287f82826122f7565b91505060a083015161289460a08601826121a1565b5060c08301516128a760c08601826121a1565b508091505092915050565b600060208201905081810360008301526128cc8184612808565b905092915050565b6000602082840312156128ea576128e961250a565b5b600082013567ffffffffffffffff8111156129085761290761250f565b5b612914848285016126b3565b91505092915050565b600080604083850312156129345761293361250a565b5b60006129428582860161252b565b925050602083013567ffffffffffffffff8111156129635761296261250f565b5b61296f858286016126b3565b9150509250929050565b600080600080608085870312156129935761299261250a565b5b600085013567ffffffffffffffff8111156129b1576129b061250f565b5b6129bd878288016126b3565b945050602085013567ffffffffffffffff8111156129de576129dd61250f565b5b6129ea878288016126b3565b935050604085013567ffffffffffffffff811115612a0b57612a0a61250f565b5b612a17878288016126b3565b9250506060612a2887828801612557565b91505092959194509250565b612a3d81612197565b82525050565b6000602082019050612a586000830184612a34565b92915050565b612a6781612330565b82525050565b6000602082019050612a826000830184612a5e565b92915050565b60008060008060008060c08789031215612aa557612aa461250a565b5b6000612ab389828a01612557565b965050602087013567ffffffffffffffff811115612ad457612ad361250f565b5b612ae089828a016126b3565b955050604087013567ffffffffffffffff811115612b0157612b0061250f565b5b612b0d89828a016126b3565b9450506060612b1e89828a01612557565b9350506080612b2f89828a01612557565b92505060a0612b4089828a01612557565b9150509295509295509295565b600060208284031215612b6357612b6261250a565b5b6000612b718482850161252b565b91505092915050565b600060208284031215612b9057612b8f61250a565b5b6000612b9e84828501612557565b91505092915050565b600082825260208201905092915050565b6000612bc3826122a0565b612bcd8185612ba7565b9350612bdd8185602086016122bc565b612be6816122e6565b840191505092915050565b60006020820190508181036000830152612c0b8184612bb8565b905092915050565b7f4e487b7100000000000000000000000000000000000000000000000000000000600052602260045260246000fd5b60006002820490506001821680612c5a57607f821691505b602082108103612c6d57612c6c612c13565b5b50919050565b7f4e487b7100000000000000000000000000000000000000000000000000000000600052603260045260246000fd5b7f4e487b7100000000000000000000000000000000000000000000000000000000600052601160045260246000fd5b6000612cdc82612197565b91507fffffffffffffffffffffffffffffffffffffffffffffffffffffffffffffffff8203612d0e57612d0d612ca2565b5b600182019050919050565b7f5269646520616c72656164792066756c6c000000000000000000000000000000600082015250565b6000612d4f601183612ba7565b9150612d5a82612d19565b602082019050919050565b60006020820190508181036000830152612d7e81612d42565b9050919050565b6000612d9082612197565b9150612d9b83612197565b9250828201905080821115612db357612db2612ca2565b5b92915050565b6000612dc482612197565b9150612dcf83612197565b9250828203905081811115612de757612de6612ca2565b5b92915050565b60008190508160005260206000209050919050565b60006020601f8301049050919050565b600082821b905092915050565b600060088302612e4f7fffffffffffffffffffffffffffffffffffffffffffffffffffffffffffffffff82612e12565b612e598683612e12565b95508019841693508086168417925050509392505050565b6000819050919050565b6000612e96612e91612e8c84612197565b612e71565b612197565b9050919050565b6000819050919050565b612eb083612e7b565b612ec4612ebc82612e9d565b848454612e1f565b825550505050565b600090565b612ed9612ecc565b612ee4818484612ea7565b505050565b5b81811015612f0857612efd600082612ed1565b600181019050612eea565b5050565b601f821115612f4d57612f1e81612ded565b612f2784612e02565b81016020851015612f36578190505b612f4a612f4285612e02565b830182612ee9565b50505b505050565b600082821c905092915050565b6000612f7060001984600802612f52565b1980831691505092915050565b6000612f898383612f5f565b9150826002028217905092915050565b612fa2826122a0565b67ffffffffffffffff811115612fbb57612fba6125b6565b5b612fc58254612c42565b612fd0828285612f0c565b600060209050601f8311600181146130035760008415612ff1578287015190505b612ffb8582612f7d565b865550613063565b601f19841661301186612ded565b60005b8281101561303957848901518255600182019150602085019450602081019050613014565b868310156130565784890151613052601f891682612f5f565b8355505b6001600288020188555050505b505050505050565b7f5061796d656e7420746f20447269766572204661696c65640000000000000000600082015250565b60006130a1601883612ba7565b91506130ac8261306b565b602082019050919050565b600060208201905081810360008301526130d081613094565b905091905056fea26469706673582212208c9276ea82506ba3f967ac9304f8e465b0c633381804fc7876f04ccd13749e4564736f6c63430008130033",
  "linkReferences": {},
  "deployedLinkReferences": {}
}