{
  "_format": "hh-sol-artifact-1",
  "contractName": "Carpooling",
  "sourceName": "contracts/Carpooling.sol",
  "abi": [
    {
      "anonymous": false,
      "inputs": [
        {
          "indexed": false,
          "internalType": "address",
          "name": "_driverID",
          "type": "address"
        }
      ],
      "name": "DriverRegistered",
      "type": "event"
    },
    {
      "stateMutability": "nonpayable",
      "type": "fallback"
    },
    {
      "inputs": [
        {
          "internalType": "address",
          "name": "PID",
          "type": "address"
        },
        {
          "internalType": "string",
          "name": "response",
          "type": "string"
        }
      ],
      "name": "addReview",
      "outputs": [],
      "stateMutability": "nonpayable",
      "type": "function"
    },
    {
      "inputs": [
        {
          "internalType": "address",
          "name": "driver",
          "type": "address"
        },
        {
          "internalType": "uint256",
          "name": "_rideID",
          "type": "uint256"
        }
      ],
      "name": "addUserToRide",
      "outputs": [],
      "stateMutability": "payable",
      "type": "function"
    },
    {
      "inputs": [],
      "name": "connectionStatus",
      "outputs": [
        {
          "internalType": "string",
          "name": "",
          "type": "string"
        }
      ],
      "stateMutability": "pure",
      "type": "function"
    },
    {
      "inputs": [
        {
          "internalType": "address",
          "name": "_driverID",
          "type": "address"
        },
        {
          "internalType": "uint256",
          "name": "_rideId",
          "type": "uint256"
        }
      ],
      "name": "endRide",
      "outputs": [],
      "stateMutability": "payable",
      "type": "function"
    },
    {
      "inputs": [
        {
          "internalType": "address",
          "name": "_driverID",
          "type": "address"
        }
      ],
      "name": "getActiveRides",
      "outputs": [
        {
          "components": [
            {
              "internalType": "uint256",
              "name": "RID",
              "type": "uint256"
            },
            {
              "internalType": "address",
              "name": "driverID",
              "type": "address"
            },
            {
              "internalType": "address[]",
              "name": "usersID",
              "type": "address[]"
            },
            {
              "internalType": "string",
              "name": "from",
              "type": "string"
            },
            {
              "internalType": "string",
              "name": "to",
              "type": "string"
            },
            {
              "internalType": "bool",
              "name": "active",
              "type": "bool"
            },
            {
              "internalType": "uint256",
              "name": "totalCharge",
              "type": "uint256"
            },
            {
              "internalType": "bool",
              "name": "paid",
              "type": "bool"
            },
            {
              "internalType": "uint256",
              "name": "startTimestamp",
              "type": "uint256"
            },
            {
              "internalType": "uint256",
              "name": "endTimestamp",
              "type": "uint256"
            },
            {
              "internalType": "uint256",
              "name": "availableSeats",
              "type": "uint256"
            }
          ],
          "internalType": "struct Carpooling.Ride[]",
          "name": "",
          "type": "tuple[]"
        }
      ],
      "stateMutability": "view",
      "type": "function"
    },
    {
      "inputs": [],
      "name": "getCarDetails",
      "outputs": [
        {
          "components": [
            {
              "internalType": "uint256",
              "name": "CID",
              "type": "uint256"
            },
            {
              "internalType": "string",
              "name": "name",
              "type": "string"
            },
            {
              "internalType": "address",
              "name": "ownerID",
              "type": "address"
            },
            {
              "internalType": "string",
              "name": "noPlate",
              "type": "string"
            },
            {
              "internalType": "string",
              "name": "color",
              "type": "string"
            },
            {
              "internalType": "uint256",
              "name": "charge",
              "type": "uint256"
            },
            {
              "internalType": "uint256",
              "name": "seats",
              "type": "uint256"
            }
          ],
          "internalType": "struct Carpooling.Car",
          "name": "",
          "type": "tuple"
        }
      ],
      "stateMutability": "view",
      "type": "function"
    },
    {
      "inputs": [],
      "name": "getLastRideIdOfDriver",
      "outputs": [
        {
          "internalType": "uint256",
          "name": "",
          "type": "uint256"
        }
      ],
      "stateMutability": "view",
      "type": "function"
    },
    {
      "inputs": [
        {
          "internalType": "address",
          "name": "_driverID",
          "type": "address"
        }
      ],
      "name": "getRidesOfDriver",
      "outputs": [
        {
          "components": [
            {
              "internalType": "uint256",
              "name": "RID",
              "type": "uint256"
            },
            {
              "internalType": "address",
              "name": "driverID",
              "type": "address"
            },
            {
              "internalType": "address[]",
              "name": "usersID",
              "type": "address[]"
            },
            {
              "internalType": "string",
              "name": "from",
              "type": "string"
            },
            {
              "internalType": "string",
              "name": "to",
              "type": "string"
            },
            {
              "internalType": "bool",
              "name": "active",
              "type": "bool"
            },
            {
              "internalType": "uint256",
              "name": "totalCharge",
              "type": "uint256"
            },
            {
              "internalType": "bool",
              "name": "paid",
              "type": "bool"
            },
            {
              "internalType": "uint256",
              "name": "startTimestamp",
              "type": "uint256"
            },
            {
              "internalType": "uint256",
              "name": "endTimestamp",
              "type": "uint256"
            },
            {
              "internalType": "uint256",
              "name": "availableSeats",
              "type": "uint256"
            }
          ],
          "internalType": "struct Carpooling.Ride[]",
          "name": "",
          "type": "tuple[]"
        }
      ],
      "stateMutability": "view",
      "type": "function"
    },
    {
      "inputs": [],
      "name": "isDriverRegistered",
      "outputs": [
        {
          "internalType": "bool",
          "name": "",
          "type": "bool"
        }
      ],
      "stateMutability": "view",
      "type": "function"
    },
    {
      "inputs": [
        {
          "internalType": "string",
          "name": "_name",
          "type": "string"
        },
        {
          "internalType": "string",
          "name": "_noPlate",
          "type": "string"
        },
        {
          "internalType": "string",
          "name": "_color",
          "type": "string"
        },
        {
          "internalType": "uint256",
          "name": "_charge",
          "type": "uint256"
        }
      ],
      "name": "registerCar",
      "outputs": [
        {
          "internalType": "uint256",
          "name": "_cid",
          "type": "uint256"
        }
      ],
      "stateMutability": "nonpayable",
      "type": "function"
    },
    {
      "inputs": [
        {
          "internalType": "string",
          "name": "_name",
          "type": "string"
        },
        {
          "internalType": "uint256",
          "name": "_phoneNo",
          "type": "uint256"
        },
        {
          "internalType": "string",
          "name": "_email",
          "type": "string"
        },
        {
          "internalType": "string",
          "name": "_docsId",
          "type": "string"
        },
        {
          "internalType": "string",
          "name": "_livingAddress",
          "type": "string"
        },
        {
          "internalType": "uint256",
          "name": "_pincode",
          "type": "uint256"
        }
      ],
      "name": "registerDriver",
      "outputs": [
        {
          "internalType": "address",
          "name": "_did",
          "type": "address"
        }
      ],
      "stateMutability": "nonpayable",
      "type": "function"
    },
    {
      "inputs": [
        {
          "internalType": "uint256",
          "name": "seats",
          "type": "uint256"
        },
        {
          "internalType": "string",
          "name": "_from",
          "type": "string"
        },
        {
          "internalType": "string",
          "name": "_to",
          "type": "string"
        },
        {
          "internalType": "uint256",
          "name": "_totalCharge",
          "type": "uint256"
        },
        {
          "internalType": "uint256",
          "name": "_startTimestamp",
          "type": "uint256"
        },
        {
          "internalType": "uint256",
          "name": "_endTimestamp",
          "type": "uint256"
        }
      ],
      "name": "registerRide",
      "outputs": [],
      "stateMutability": "nonpayable",
      "type": "function"
    },
    {
      "inputs": [
        {
          "internalType": "string",
          "name": "_name",
          "type": "string"
        }
      ],
      "name": "registerUser",
      "outputs": [],
      "stateMutability": "nonpayable",
      "type": "function"
    },
    {
      "inputs": [
        {
          "internalType": "address",
          "name": "_driverID",
          "type": "address"
        },
        {
          "internalType": "uint256",
          "name": "_rideId",
          "type": "uint256"
        }
      ],
      "name": "startRide",
      "outputs": [],
      "stateMutability": "nonpayable",
      "type": "function"
    }
  ],
  "bytecode": "0x608060405260008055600060015534801561001957600080fd5b506130f5806100296000396000f3fe6080604052600436106100e15760003560e01c80637fed674d1161007f578063a1b260c311610059578063a1b260c3146102b0578063b8b8e003146102db578063ca144bc814610304578063eb4bdad014610341576100e2565b80637fed674d1461021f57806381d7d0d914610248578063989795e814610285576100e2565b80636a383f16116100bb5780636a383f1614610186578063704f1b94146101b1578063720c6750146101da57806378a71cc014610203576100e2565b80631ab4f0b1146100f05780633c7398161461010c57806365a2500614610149576100e2565b5b3480156100ee57600080fd5b005b61010a60048036038101906101059190612228565b61036c565b005b34801561011857600080fd5b50610133600480360381019061012e91906123ae565b6104fe565b60405161014091906124ba565b60405180910390f35b34801561015557600080fd5b50610170600480360381019061016b91906124d5565b6106b9565b60405161017d9190612828565b60405180910390f35b34801561019257600080fd5b5061019b610b0a565b6040516101a891906128f4565b60405180910390f35b3480156101bd57600080fd5b506101d860048036038101906101d39190612916565b610d8b565b005b3480156101e657600080fd5b5061020160048036038101906101fc919061295f565b610e43565b005b61021d60048036038101906102189190612228565b610f39565b005b34801561022b57600080fd5b5061024660048036038101906102419190612228565b611002565b005b34801561025457600080fd5b5061026f600480360381019061026a91906129bb565b611012565b60405161027c9190612a85565b60405180910390f35b34801561029157600080fd5b5061029a611194565b6040516102a79190612aaf565b60405180910390f35b3480156102bc57600080fd5b506102c5611297565b6040516102d29190612a85565b60405180910390f35b3480156102e757600080fd5b5061030260048036038101906102fd9190612aca565b6112de565b005b34801561031057600080fd5b5061032b600480360381019061032691906124d5565b61156e565b6040516103389190612828565b60405180910390f35b34801561034d57600080fd5b5061035661187d565b6040516103639190612bd9565b60405180910390f35b6000600560008473ffffffffffffffffffffffffffffffffffffffff1673ffffffffffffffffffffffffffffffffffffffff16815260200190815260200160002082815481106103bf576103be612bfb565b5b90600052602060002090600b02019050600081600a015411610416576040517f08c379a000000000000000000000000000000000000000000000000000000000815260040161040d90612c76565b60405180910390fd5b6000349050600033905082600201819080600181540180825580915050600190039060005260206000200160009091909190916101000a81548173ffffffffffffffffffffffffffffffffffffffff021916908373ffffffffffffffffffffffffffffffffffffffff16021790555081600860008773ffffffffffffffffffffffffffffffffffffffff1673ffffffffffffffffffffffffffffffffffffffff16815260200190815260200160002060008282546104d49190612cc5565b92505081905550600183600a0160008282546104f09190612cf9565b925050819055505050505050565b6000610508611fae565b6040518061012001604052803373ffffffffffffffffffffffffffffffffffffffff16815260200189815260200188815260200187815260200186815260200160001515815260200160008152602001858152602001848152509050600281908060018154018082558091505060019003906000526020600020906009020160009091909190915060008201518160000160006101000a81548173ffffffffffffffffffffffffffffffffffffffff021916908373ffffffffffffffffffffffffffffffffffffffff16021790555060208201518160010190816105ec9190612f39565b5060408201518160020155606082015181600301908161060c9190612f39565b5060808201518160040190816106229190612f39565b5060a08201518160050160006101000a81548160ff02191690831515021790555060c0820151816006015560e08201518160070190816106629190612f39565b5061010082015181600801555050806000015191507fbe5e7a1c543800c6abb49749a131598b050660d403a09b2e31318c2048c00d74826040516106a691906124ba565b60405180910390a1509695505050505050565b60606000600560008473ffffffffffffffffffffffffffffffffffffffff1673ffffffffffffffffffffffffffffffffffffffff168152602001908152602001600020805480602002602001604051908101604052809291908181526020016000905b828210156109bf57838290600052602060002090600b020160405180610160016040529081600082015481526020016001820160009054906101000a900473ffffffffffffffffffffffffffffffffffffffff1673ffffffffffffffffffffffffffffffffffffffff1673ffffffffffffffffffffffffffffffffffffffff1681526020016002820180548060200260200160405190810160405280929190818152602001828054801561082557602002820191906000526020600020905b8160009054906101000a900473ffffffffffffffffffffffffffffffffffffffff1673ffffffffffffffffffffffffffffffffffffffff16815260200190600101908083116107db575b5050505050815260200160038201805461083e90612d5c565b80601f016020809104026020016040519081016040528092919081815260200182805461086a90612d5c565b80156108b75780601f1061088c576101008083540402835291602001916108b7565b820191906000526020600020905b81548152906001019060200180831161089a57829003601f168201915b505050505081526020016004820180546108d090612d5c565b80601f01602080910402602001604051908101604052809291908181526020018280546108fc90612d5c565b80156109495780601f1061091e57610100808354040283529160200191610949565b820191906000526020600020905b81548152906001019060200180831161092c57829003601f168201915b505050505081526020016005820160009054906101000a900460ff16151515158152602001600682015481526020016007820160009054906101000a900460ff161515151581526020016008820154815260200160098201548152602001600a820154815250508152602001906001019061071c565b5050505090506000805b8251811015610a18578281815181106109e5576109e4612bfb565b5b602002602001015160a0015115610a05578180610a019061300b565b9250505b8080610a109061300b565b9150506109c9565b5060008167ffffffffffffffff811115610a3557610a34612283565b5b604051908082528060200260200182016040528015610a6e57816020015b610a5b612012565b815260200190600190039081610a535790505b5090506000805b8451811015610afd57848181518110610a9157610a90612bfb565b5b602002602001015160a0015115610aea57848181518110610ab557610ab4612bfb565b5b6020026020010151838381518110610ad057610acf612bfb565b5b60200260200101819052508180610ae69061300b565b9250505b8080610af59061300b565b915050610a75565b5081945050505050919050565b610b12612086565b600660003373ffffffffffffffffffffffffffffffffffffffff1673ffffffffffffffffffffffffffffffffffffffff1681526020019081526020016000206040518060e001604052908160008201548152602001600182018054610b7690612d5c565b80601f0160208091040260200160405190810160405280929190818152602001828054610ba290612d5c565b8015610bef5780601f10610bc457610100808354040283529160200191610bef565b820191906000526020600020905b815481529060010190602001808311610bd257829003601f168201915b505050505081526020016002820160009054906101000a900473ffffffffffffffffffffffffffffffffffffffff1673ffffffffffffffffffffffffffffffffffffffff1673ffffffffffffffffffffffffffffffffffffffff168152602001600382018054610c5e90612d5c565b80601f0160208091040260200160405190810160405280929190818152602001828054610c8a90612d5c565b8015610cd75780601f10610cac57610100808354040283529160200191610cd7565b820191906000526020600020905b815481529060010190602001808311610cba57829003601f168201915b50505050508152602001600482018054610cf090612d5c565b80601f0160208091040260200160405190810160405280929190818152602001828054610d1c90612d5c565b8015610d695780601f10610d3e57610100808354040283529160200191610d69565b820191906000526020600020905b815481529060010190602001808311610d4c57829003601f168201915b5050505050815260200160058201548152602001600682015481525050905090565b600360405180604001604052803373ffffffffffffffffffffffffffffffffffffffff16815260200183815250908060018154018082558091505060019003906000526020600020906002020160009091909190915060008201518160000160006101000a81548173ffffffffffffffffffffffffffffffffffffffff021916908373ffffffffffffffffffffffffffffffffffffffff1602179055506020820151816001019081610e3d9190612f39565b50505050565b600460008373ffffffffffffffffffffffffffffffffffffffff1673ffffffffffffffffffffffffffffffffffffffff16815260200190815260200160002060405180604001604052808473ffffffffffffffffffffffffffffffffffffffff16815260200183815250908060018154018082558091505060019003906000526020600020906002020160009091909190915060008201518160000160006101000a81548173ffffffffffffffffffffffffffffffffffffffff021916908373ffffffffffffffffffffffffffffffffffffffff1602179055506020820151816001019081610f329190612f39565b5050505050565b60008273ffffffffffffffffffffffffffffffffffffffff166108fc600860008673ffffffffffffffffffffffffffffffffffffffff1673ffffffffffffffffffffffffffffffffffffffff168152602001908152602001600020549081150290604051600060405180830381858888f19350505050905080610ff1576040517f08c379a0000000000000000000000000000000000000000000000000000000008152600401610fe89061309f565b60405180910390fd5b610ffd838360006118ba565b505050565b61100e828260016118ba565b5050565b600061101c612086565b85816020018190525060005481600001818152505033816040019073ffffffffffffffffffffffffffffffffffffffff16908173ffffffffffffffffffffffffffffffffffffffff1681525050848160600181905250838160800181905250828160a001818152505080600660003373ffffffffffffffffffffffffffffffffffffffff1673ffffffffffffffffffffffffffffffffffffffff1681526020019081526020016000206000820151816000015560208201518160010190816110e49190612f39565b5060408201518160020160006101000a81548173ffffffffffffffffffffffffffffffffffffffff021916908373ffffffffffffffffffffffffffffffffffffffff16021790555060608201518160030190816111419190612f39565b5060808201518160040190816111579190612f39565b5060a0820151816005015560c0820151816006015590505060005491506000808154809291906111869061300b565b919050555050949350505050565b600080600660003373ffffffffffffffffffffffffffffffffffffffff1673ffffffffffffffffffffffffffffffffffffffff1681526020019081526020016000206000015411156111e95760019050611294565b60005b60028054905081101561128e573373ffffffffffffffffffffffffffffffffffffffff166002828154811061122457611223612bfb565b5b906000526020600020906009020160000160009054906101000a900473ffffffffffffffffffffffffffffffffffffffff1673ffffffffffffffffffffffffffffffffffffffff160361127b576001915050611294565b80806112869061300b565b9150506111ec565b50600090505b90565b6000600760003373ffffffffffffffffffffffffffffffffffffffff1673ffffffffffffffffffffffffffffffffffffffff16815260200190815260200160002054905090565b600060405180610160016040528060015481526020013373ffffffffffffffffffffffffffffffffffffffff168152602001600067ffffffffffffffff81111561132b5761132a612283565b5b6040519080825280602002602001820160405280156113595781602001602082028036833780820191505090505b508152602001878152602001868152602001600015158152602001858152602001600015158152602001848152602001838152602001888152509050600560003373ffffffffffffffffffffffffffffffffffffffff1673ffffffffffffffffffffffffffffffffffffffff1681526020019081526020016000208190806001815401808255809150506001900390600052602060002090600b02016000909190919091506000820151816000015560208201518160010160006101000a81548173ffffffffffffffffffffffffffffffffffffffff021916908373ffffffffffffffffffffffffffffffffffffffff160217905550604082015181600201908051906020019061146b9291906120d9565b5060608201518160030190816114819190612f39565b5060808201518160040190816114979190612f39565b5060a08201518160050160006101000a81548160ff02191690831515021790555060c0820151816006015560e08201518160070160006101000a81548160ff0219169083151502179055506101008201518160080155610120820151816009015561014082015181600a015550508060000151600760003373ffffffffffffffffffffffffffffffffffffffff1673ffffffffffffffffffffffffffffffffffffffff16815260200190815260200160002081905550600160008154809291906115609061300b565b919050555050505050505050565b6060600560008373ffffffffffffffffffffffffffffffffffffffff1673ffffffffffffffffffffffffffffffffffffffff168152602001908152602001600020805480602002602001604051908101604052809291908181526020016000905b8282101561187257838290600052602060002090600b020160405180610160016040529081600082015481526020016001820160009054906101000a900473ffffffffffffffffffffffffffffffffffffffff1673ffffffffffffffffffffffffffffffffffffffff1673ffffffffffffffffffffffffffffffffffffffff168152602001600282018054806020026020016040519081016040528092919081815260200182805480156116d857602002820191906000526020600020905b8160009054906101000a900473ffffffffffffffffffffffffffffffffffffffff1673ffffffffffffffffffffffffffffffffffffffff168152602001906001019080831161168e575b505050505081526020016003820180546116f190612d5c565b80601f016020809104026020016040519081016040528092919081815260200182805461171d90612d5c565b801561176a5780601f1061173f5761010080835404028352916020019161176a565b820191906000526020600020905b81548152906001019060200180831161174d57829003601f168201915b5050505050815260200160048201805461178390612d5c565b80601f01602080910402602001604051908101604052809291908181526020018280546117af90612d5c565b80156117fc5780601f106117d1576101008083540402835291602001916117fc565b820191906000526020600020905b8154815290600101906020018083116117df57829003601f168201915b505050505081526020016005820160009054906101000a900460ff16151515158152602001600682015481526020016007820160009054906101000a900460ff161515151581526020016008820154815260200160098201548152602001600a82015481525050815260200190600101906115cf565b505050509050919050565b60606040518060400160405280601281526020017f436f6e6e656374696f6e20537563636573730000000000000000000000000000815250905090565b6000600560008573ffffffffffffffffffffffffffffffffffffffff1673ffffffffffffffffffffffffffffffffffffffff168152602001908152602001600020805480602002602001604051908101604052809291908181526020016000905b82821015611bbe57838290600052602060002090600b020160405180610160016040529081600082015481526020016001820160009054906101000a900473ffffffffffffffffffffffffffffffffffffffff1673ffffffffffffffffffffffffffffffffffffffff1673ffffffffffffffffffffffffffffffffffffffff16815260200160028201805480602002602001604051908101604052809291908181526020018280548015611a2457602002820191906000526020600020905b8160009054906101000a900473ffffffffffffffffffffffffffffffffffffffff1673ffffffffffffffffffffffffffffffffffffffff16815260200190600101908083116119da575b50505050508152602001600382018054611a3d90612d5c565b80601f0160208091040260200160405190810160405280929190818152602001828054611a6990612d5c565b8015611ab65780601f10611a8b57610100808354040283529160200191611ab6565b820191906000526020600020905b815481529060010190602001808311611a9957829003601f168201915b50505050508152602001600482018054611acf90612d5c565b80601f0160208091040260200160405190810160405280929190818152602001828054611afb90612d5c565b8015611b485780601f10611b1d57610100808354040283529160200191611b48565b820191906000526020600020905b815481529060010190602001808311611b2b57829003601f168201915b505050505081526020016005820160009054906101000a900460ff16151515158152602001600682015481526020016007820160009054906101000a900460ff161515151581526020016008820154815260200160098201548152602001600a820154815250508152602001906001019061191b565b505050509050611bcc612012565b60005b8251811015611f6c5784838281518110611bec57611beb612bfb565b5b60200260200101516000015103611f595783600560008873ffffffffffffffffffffffffffffffffffffffff1673ffffffffffffffffffffffffffffffffffffffff1681526020019081526020016000208281548110611c4f57611c4e612bfb565b5b90600052602060002090600b020160050160006101000a81548160ff021916908315150217905550600560008773ffffffffffffffffffffffffffffffffffffffff1673ffffffffffffffffffffffffffffffffffffffff1681526020019081526020016000208181548110611cc857611cc7612bfb565b5b90600052602060002090600b020160405180610160016040529081600082015481526020016001820160009054906101000a900473ffffffffffffffffffffffffffffffffffffffff1673ffffffffffffffffffffffffffffffffffffffff1673ffffffffffffffffffffffffffffffffffffffff16815260200160028201805480602002602001604051908101604052809291908181526020018280548015611dc757602002820191906000526020600020905b8160009054906101000a900473ffffffffffffffffffffffffffffffffffffffff1673ffffffffffffffffffffffffffffffffffffffff1681526020019060010190808311611d7d575b50505050508152602001600382018054611de090612d5c565b80601f0160208091040260200160405190810160405280929190818152602001828054611e0c90612d5c565b8015611e595780601f10611e2e57610100808354040283529160200191611e59565b820191906000526020600020905b815481529060010190602001808311611e3c57829003601f168201915b50505050508152602001600482018054611e7290612d5c565b80601f0160208091040260200160405190810160405280929190818152602001828054611e9e90612d5c565b8015611eeb5780601f10611ec057610100808354040283529160200191611eeb565b820191906000526020600020905b815481529060010190602001808311611ece57829003601f168201915b505050505081526020016005820160009054906101000a900460ff16151515158152602001600682015481526020016007820160009054906101000a900460ff161515151581526020016008820154815260200160098201548152602001600a820154815250509150611f6c565b8080611f649061300b565b915050611bcf565b50600081610120015114611f9b5760018160e00190151590811515815250504281610120018181525050611fa7565b42816101000181815250505b5050505050565b604051806101200160405280600073ffffffffffffffffffffffffffffffffffffffff168152602001606081526020016000815260200160608152602001606081526020016000151581526020016000815260200160608152602001600081525090565b60405180610160016040528060008152602001600073ffffffffffffffffffffffffffffffffffffffff168152602001606081526020016060815260200160608152602001600015158152602001600081526020016000151581526020016000815260200160008152602001600081525090565b6040518060e001604052806000815260200160608152602001600073ffffffffffffffffffffffffffffffffffffffff168152602001606081526020016060815260200160008152602001600081525090565b828054828255906000526020600020908101928215612152579160200282015b828111156121515782518260006101000a81548173ffffffffffffffffffffffffffffffffffffffff021916908373ffffffffffffffffffffffffffffffffffffffff160217905550916020019190600101906120f9565b5b50905061215f9190612163565b5090565b5b8082111561217c576000816000905550600101612164565b5090565b6000604051905090565b600080fd5b600080fd5b600073ffffffffffffffffffffffffffffffffffffffff82169050919050565b60006121bf82612194565b9050919050565b6121cf816121b4565b81146121da57600080fd5b50565b6000813590506121ec816121c6565b92915050565b6000819050919050565b612205816121f2565b811461221057600080fd5b50565b600081359050612222816121fc565b92915050565b6000806040838503121561223f5761223e61218a565b5b600061224d858286016121dd565b925050602061225e85828601612213565b9150509250929050565b600080fd5b600080fd5b6000601f19601f8301169050919050565b7f4e487b7100000000000000000000000000000000000000000000000000000000600052604160045260246000fd5b6122bb82612272565b810181811067ffffffffffffffff821117156122da576122d9612283565b5b80604052505050565b60006122ed612180565b90506122f982826122b2565b919050565b600067ffffffffffffffff82111561231957612318612283565b5b61232282612272565b9050602081019050919050565b82818337600083830152505050565b600061235161234c846122fe565b6122e3565b90508281526020810184848401111561236d5761236c61226d565b5b61237884828561232f565b509392505050565b600082601f83011261239557612394612268565b5b81356123a584826020860161233e565b91505092915050565b60008060008060008060c087890312156123cb576123ca61218a565b5b600087013567ffffffffffffffff8111156123e9576123e861218f565b5b6123f589828a01612380565b965050602061240689828a01612213565b955050604087013567ffffffffffffffff8111156124275761242661218f565b5b61243389828a01612380565b945050606087013567ffffffffffffffff8111156124545761245361218f565b5b61246089828a01612380565b935050608087013567ffffffffffffffff8111156124815761248061218f565b5b61248d89828a01612380565b92505060a061249e89828a01612213565b9150509295509295509295565b6124b4816121b4565b82525050565b60006020820190506124cf60008301846124ab565b92915050565b6000602082840312156124eb576124ea61218a565b5b60006124f9848285016121dd565b91505092915050565b600081519050919050565b600082825260208201905092915050565b6000819050602082019050919050565b612537816121f2565b82525050565b612546816121b4565b82525050565b600081519050919050565b600082825260208201905092915050565b6000819050602082019050919050565b6000612584838361253d565b60208301905092915050565b6000602082019050919050565b60006125a88261254c565b6125b28185612557565b93506125bd83612568565b8060005b838110156125ee5781516125d58882612578565b97506125e083612590565b9250506001810190506125c1565b5085935050505092915050565b600081519050919050565b600082825260208201905092915050565b60005b8381101561263557808201518184015260208101905061261a565b60008484015250505050565b600061264c826125fb565b6126568185612606565b9350612666818560208601612617565b61266f81612272565b840191505092915050565b60008115159050919050565b61268f8161267a565b82525050565b6000610160830160008301516126ae600086018261252e565b5060208301516126c1602086018261253d565b50604083015184820360408601526126d9828261259d565b915050606083015184820360608601526126f38282612641565b9150506080830151848203608086015261270d8282612641565b91505060a083015161272260a0860182612686565b5060c083015161273560c086018261252e565b5060e083015161274860e0860182612686565b5061010083015161275d61010086018261252e565b5061012083015161277261012086018261252e565b5061014083015161278761014086018261252e565b508091505092915050565b600061279e8383612695565b905092915050565b6000602082019050919050565b60006127be82612502565b6127c8818561250d565b9350836020820285016127da8561251e565b8060005b8581101561281657848403895281516127f78582612792565b9450612802836127a6565b925060208a019950506001810190506127de565b50829750879550505050505092915050565b6000602082019050818103600083015261284281846127b3565b905092915050565b600060e083016000830151612862600086018261252e565b506020830151848203602086015261287a8282612641565b915050604083015161288f604086018261253d565b50606083015184820360608601526128a78282612641565b915050608083015184820360808601526128c18282612641565b91505060a08301516128d660a086018261252e565b5060c08301516128e960c086018261252e565b508091505092915050565b6000602082019050818103600083015261290e818461284a565b905092915050565b60006020828403121561292c5761292b61218a565b5b600082013567ffffffffffffffff81111561294a5761294961218f565b5b61295684828501612380565b91505092915050565b600080604083850312156129765761297561218a565b5b6000612984858286016121dd565b925050602083013567ffffffffffffffff8111156129a5576129a461218f565b5b6129b185828601612380565b9150509250929050565b600080600080608085870312156129d5576129d461218a565b5b600085013567ffffffffffffffff8111156129f3576129f261218f565b5b6129ff87828801612380565b945050602085013567ffffffffffffffff811115612a2057612a1f61218f565b5b612a2c87828801612380565b935050604085013567ffffffffffffffff811115612a4d57612a4c61218f565b5b612a5987828801612380565b9250506060612a6a87828801612213565b91505092959194509250565b612a7f816121f2565b82525050565b6000602082019050612a9a6000830184612a76565b92915050565b612aa98161267a565b82525050565b6000602082019050612ac46000830184612aa0565b92915050565b60008060008060008060c08789031215612ae757612ae661218a565b5b6000612af589828a01612213565b965050602087013567ffffffffffffffff811115612b1657612b1561218f565b5b612b2289828a01612380565b955050604087013567ffffffffffffffff811115612b4357612b4261218f565b5b612b4f89828a01612380565b9450506060612b6089828a01612213565b9350506080612b7189828a01612213565b92505060a0612b8289828a01612213565b9150509295509295509295565b600082825260208201905092915050565b6000612bab826125fb565b612bb58185612b8f565b9350612bc5818560208601612617565b612bce81612272565b840191505092915050565b60006020820190508181036000830152612bf38184612ba0565b905092915050565b7f4e487b7100000000000000000000000000000000000000000000000000000000600052603260045260246000fd5b7f5269646520616c72656164792066756c6c000000000000000000000000000000600082015250565b6000612c60601183612b8f565b9150612c6b82612c2a565b602082019050919050565b60006020820190508181036000830152612c8f81612c53565b9050919050565b7f4e487b7100000000000000000000000000000000000000000000000000000000600052601160045260246000fd5b6000612cd0826121f2565b9150612cdb836121f2565b9250828201905080821115612cf357612cf2612c96565b5b92915050565b6000612d04826121f2565b9150612d0f836121f2565b9250828203905081811115612d2757612d26612c96565b5b92915050565b7f4e487b7100000000000000000000000000000000000000000000000000000000600052602260045260246000fd5b60006002820490506001821680612d7457607f821691505b602082108103612d8757612d86612d2d565b5b50919050565b60008190508160005260206000209050919050565b60006020601f8301049050919050565b600082821b905092915050565b600060088302612def7fffffffffffffffffffffffffffffffffffffffffffffffffffffffffffffffff82612db2565b612df98683612db2565b95508019841693508086168417925050509392505050565b6000819050919050565b6000612e36612e31612e2c846121f2565b612e11565b6121f2565b9050919050565b6000819050919050565b612e5083612e1b565b612e64612e5c82612e3d565b848454612dbf565b825550505050565b600090565b612e79612e6c565b612e84818484612e47565b505050565b5b81811015612ea857612e9d600082612e71565b600181019050612e8a565b5050565b601f821115612eed57612ebe81612d8d565b612ec784612da2565b81016020851015612ed6578190505b612eea612ee285612da2565b830182612e89565b50505b505050565b600082821c905092915050565b6000612f1060001984600802612ef2565b1980831691505092915050565b6000612f298383612eff565b9150826002028217905092915050565b612f42826125fb565b67ffffffffffffffff811115612f5b57612f5a612283565b5b612f658254612d5c565b612f70828285612eac565b600060209050601f831160018114612fa35760008415612f91578287015190505b612f9b8582612f1d565b865550613003565b601f198416612fb186612d8d565b60005b82811015612fd957848901518255600182019150602085019450602081019050612fb4565b86831015612ff65784890151612ff2601f891682612eff565b8355505b6001600288020188555050505b505050505050565b6000613016826121f2565b91507fffffffffffffffffffffffffffffffffffffffffffffffffffffffffffffffff820361304857613047612c96565b5b600182019050919050565b7f5061796d656e7420746f20447269766572204661696c65640000000000000000600082015250565b6000613089601883612b8f565b915061309482613053565b602082019050919050565b600060208201905081810360008301526130b88161307c565b905091905056fea2646970667358221220b98592b178ec27c95609e6e3ee9b4b7c0666a740f545bfc2b2c79424c5cf8a4364736f6c63430008130033",
  "linkReferences": {},
  "deployedLinkReferences": {}
}