{
  "_format": "hh-sol-artifact-1",
  "contractName": "Carpooling",
  "sourceName": "contracts/Carpooling.sol",
  "abi": [
    {
      "anonymous": false,
      "inputs": [
        {
          "indexed": false,
          "internalType": "address",
          "name": "_driverID",
          "type": "address"
        }
      ],
      "name": "DriverRegistered",
      "type": "event"
    },
    {
      "stateMutability": "nonpayable",
      "type": "fallback"
    },
    {
      "inputs": [
        {
          "internalType": "address",
          "name": "driverId",
          "type": "address"
        },
        {
          "internalType": "string",
          "name": "response",
          "type": "string"
        }
      ],
      "name": "addReview",
      "outputs": [],
      "stateMutability": "nonpayable",
      "type": "function"
    },
    {
      "inputs": [
        {
          "internalType": "address",
          "name": "driver",
          "type": "address"
        },
        {
          "internalType": "uint256",
          "name": "_rideID",
          "type": "uint256"
        }
      ],
      "name": "addUserToRide",
      "outputs": [],
      "stateMutability": "payable",
      "type": "function"
    },
    {
      "inputs": [],
      "name": "connectionStatus",
      "outputs": [
        {
          "internalType": "string",
          "name": "",
          "type": "string"
        }
      ],
      "stateMutability": "pure",
      "type": "function"
    },
    {
      "inputs": [
        {
          "internalType": "address",
          "name": "_driverID",
          "type": "address"
        },
        {
          "internalType": "uint256",
          "name": "_rideId",
          "type": "uint256"
        }
      ],
      "name": "endRide",
      "outputs": [],
      "stateMutability": "payable",
      "type": "function"
    },
    {
      "inputs": [],
      "name": "getActiveRides",
      "outputs": [
        {
          "components": [
            {
              "internalType": "uint256",
              "name": "RID",
              "type": "uint256"
            },
            {
              "internalType": "address",
              "name": "driverID",
              "type": "address"
            },
            {
              "internalType": "address[]",
              "name": "usersID",
              "type": "address[]"
            },
            {
              "internalType": "string",
              "name": "from",
              "type": "string"
            },
            {
              "internalType": "string",
              "name": "to",
              "type": "string"
            },
            {
              "internalType": "bool",
              "name": "active",
              "type": "bool"
            },
            {
              "internalType": "uint256",
              "name": "totalCharge",
              "type": "uint256"
            },
            {
              "internalType": "bool",
              "name": "paid",
              "type": "bool"
            },
            {
              "internalType": "uint256",
              "name": "startTimestamp",
              "type": "uint256"
            },
            {
              "internalType": "uint256",
              "name": "endTimestamp",
              "type": "uint256"
            },
            {
              "internalType": "uint256",
              "name": "availableSeats",
              "type": "uint256"
            }
          ],
          "internalType": "struct Carpooling.Ride[]",
          "name": "",
          "type": "tuple[]"
        }
      ],
      "stateMutability": "view",
      "type": "function"
    },
    {
      "inputs": [],
      "name": "getCarDetails",
      "outputs": [
        {
          "components": [
            {
              "internalType": "uint256",
              "name": "CID",
              "type": "uint256"
            },
            {
              "internalType": "string",
              "name": "name",
              "type": "string"
            },
            {
              "internalType": "address",
              "name": "ownerID",
              "type": "address"
            },
            {
              "internalType": "string",
              "name": "noPlate",
              "type": "string"
            },
            {
              "internalType": "string",
              "name": "color",
              "type": "string"
            },
            {
              "internalType": "uint256",
              "name": "charge",
              "type": "uint256"
            },
            {
              "internalType": "uint256",
              "name": "seats",
              "type": "uint256"
            }
          ],
          "internalType": "struct Carpooling.Car",
          "name": "",
          "type": "tuple"
        }
      ],
      "stateMutability": "view",
      "type": "function"
    },
    {
      "inputs": [],
      "name": "getLastRideIdOfDriver",
      "outputs": [
        {
          "internalType": "uint256",
          "name": "",
          "type": "uint256"
        }
      ],
      "stateMutability": "view",
      "type": "function"
    },
    {
      "inputs": [
        {
          "internalType": "address",
          "name": "driverId",
          "type": "address"
        }
      ],
      "name": "getReviewsOfDriver",
      "outputs": [
        {
          "components": [
            {
              "internalType": "address",
              "name": "PID",
              "type": "address"
            },
            {
              "internalType": "string",
              "name": "review",
              "type": "string"
            }
          ],
          "internalType": "struct Carpooling.Review[]",
          "name": "",
          "type": "tuple[]"
        }
      ],
      "stateMutability": "view",
      "type": "function"
    },
    {
      "inputs": [],
      "name": "getRidesOfDriver",
      "outputs": [
        {
          "components": [
            {
              "internalType": "uint256",
              "name": "RID",
              "type": "uint256"
            },
            {
              "internalType": "address",
              "name": "driverID",
              "type": "address"
            },
            {
              "internalType": "address[]",
              "name": "usersID",
              "type": "address[]"
            },
            {
              "internalType": "string",
              "name": "from",
              "type": "string"
            },
            {
              "internalType": "string",
              "name": "to",
              "type": "string"
            },
            {
              "internalType": "bool",
              "name": "active",
              "type": "bool"
            },
            {
              "internalType": "uint256",
              "name": "totalCharge",
              "type": "uint256"
            },
            {
              "internalType": "bool",
              "name": "paid",
              "type": "bool"
            },
            {
              "internalType": "uint256",
              "name": "startTimestamp",
              "type": "uint256"
            },
            {
              "internalType": "uint256",
              "name": "endTimestamp",
              "type": "uint256"
            },
            {
              "internalType": "uint256",
              "name": "availableSeats",
              "type": "uint256"
            }
          ],
          "internalType": "struct Carpooling.Ride[]",
          "name": "",
          "type": "tuple[]"
        }
      ],
      "stateMutability": "view",
      "type": "function"
    },
    {
      "inputs": [],
      "name": "isDriverRegistered",
      "outputs": [
        {
          "internalType": "bool",
          "name": "",
          "type": "bool"
        }
      ],
      "stateMutability": "view",
      "type": "function"
    },
    {
      "inputs": [
        {
          "internalType": "string",
          "name": "_name",
          "type": "string"
        },
        {
          "internalType": "string",
          "name": "_noPlate",
          "type": "string"
        },
        {
          "internalType": "string",
          "name": "_color",
          "type": "string"
        },
        {
          "internalType": "uint256",
          "name": "_charge",
          "type": "uint256"
        }
      ],
      "name": "registerCar",
      "outputs": [
        {
          "internalType": "uint256",
          "name": "_cid",
          "type": "uint256"
        }
      ],
      "stateMutability": "nonpayable",
      "type": "function"
    },
    {
      "inputs": [
        {
          "internalType": "string",
          "name": "_name",
          "type": "string"
        },
        {
          "internalType": "uint256",
          "name": "_phoneNo",
          "type": "uint256"
        },
        {
          "internalType": "string",
          "name": "_email",
          "type": "string"
        },
        {
          "internalType": "string",
          "name": "_docsId",
          "type": "string"
        },
        {
          "internalType": "string",
          "name": "_livingAddress",
          "type": "string"
        },
        {
          "internalType": "uint256",
          "name": "_pincode",
          "type": "uint256"
        }
      ],
      "name": "registerDriver",
      "outputs": [
        {
          "internalType": "address",
          "name": "_did",
          "type": "address"
        }
      ],
      "stateMutability": "nonpayable",
      "type": "function"
    },
    {
      "inputs": [
        {
          "internalType": "uint256",
          "name": "seats",
          "type": "uint256"
        },
        {
          "internalType": "string",
          "name": "_from",
          "type": "string"
        },
        {
          "internalType": "string",
          "name": "_to",
          "type": "string"
        },
        {
          "internalType": "uint256",
          "name": "_totalCharge",
          "type": "uint256"
        },
        {
          "internalType": "uint256",
          "name": "_startTimestamp",
          "type": "uint256"
        },
        {
          "internalType": "uint256",
          "name": "_endTimestamp",
          "type": "uint256"
        }
      ],
      "name": "registerRide",
      "outputs": [],
      "stateMutability": "nonpayable",
      "type": "function"
    },
    {
      "inputs": [
        {
          "internalType": "string",
          "name": "_name",
          "type": "string"
        }
      ],
      "name": "registerUser",
      "outputs": [],
      "stateMutability": "nonpayable",
      "type": "function"
    },
    {
      "inputs": [
        {
          "internalType": "uint256",
          "name": "_rideId",
          "type": "uint256"
        }
      ],
      "name": "startRide",
      "outputs": [],
      "stateMutability": "nonpayable",
      "type": "function"
    }
  ],
  "bytecode": "0x608060405260008055600060015534801561001957600080fd5b506133e8806100296000396000f3fe6080604052600436106100ec5760003560e01c806378a71cc01161008a578063a1b260c311610059578063a1b260c3146102e8578063b8b8e00314610313578063e9c14b1e1461033c578063eb4bdad014610365576100ed565b806378a71cc01461023957806381d7d0d91461025557806398008b7b14610292578063989795e8146102bd576100ed565b80633c739816116100c65780633c7398161461017f5780636a383f16146101bc578063704f1b94146101e7578063720c675014610210576100ed565b80630252892c146100fb5780630dcc2fb7146101385780631ab4f0b114610163576100ed565b5b3480156100f957600080fd5b005b34801561010757600080fd5b50610122600480360381019061011d9190612397565b610390565b60405161012f9190612562565b60405180910390f35b34801561014457600080fd5b5061014d610516565b60405161015a9190612826565b60405180910390f35b61017d60048036038101906101789190612874565b610965565b005b34801561018b57600080fd5b506101a660048036038101906101a191906129e9565b610af7565b6040516101b39190612af5565b60405180910390f35b3480156101c857600080fd5b506101d1610cb2565b6040516101de9190612bba565b60405180910390f35b3480156101f357600080fd5b5061020e60048036038101906102099190612bdc565b610f33565b005b34801561021c57600080fd5b5061023760048036038101906102329190612c25565b610feb565b005b610253600480360381019061024e9190612874565b6110e1565b005b34801561026157600080fd5b5061027c60048036038101906102779190612c81565b6111aa565b6040516102899190612d4b565b60405180910390f35b34801561029e57600080fd5b506102a761132c565b6040516102b49190612826565b60405180910390f35b3480156102c957600080fd5b506102d2611639565b6040516102df9190612d75565b60405180910390f35b3480156102f457600080fd5b506102fd61173c565b60405161030a9190612d4b565b60405180910390f35b34801561031f57600080fd5b5061033a60048036038101906103359190612d90565b611783565b005b34801561034857600080fd5b50610363600480360381019061035e9190612e55565b611a13565b005b34801561037157600080fd5b5061037a611a22565b6040516103879190612ecc565b60405180910390f35b6060600460008373ffffffffffffffffffffffffffffffffffffffff1673ffffffffffffffffffffffffffffffffffffffff168152602001908152602001600020805480602002602001604051908101604052809291908181526020016000905b8282101561050b57838290600052602060002090600202016040518060400160405290816000820160009054906101000a900473ffffffffffffffffffffffffffffffffffffffff1673ffffffffffffffffffffffffffffffffffffffff1673ffffffffffffffffffffffffffffffffffffffff16815260200160018201805461047a90612f1d565b80601f01602080910402602001604051908101604052809291908181526020018280546104a690612f1d565b80156104f35780601f106104c8576101008083540402835291602001916104f3565b820191906000526020600020905b8154815290600101906020018083116104d657829003601f168201915b505050505081525050815260200190600101906103f1565b505050509050919050565b60606000600560003373ffffffffffffffffffffffffffffffffffffffff1673ffffffffffffffffffffffffffffffffffffffff168152602001908152602001600020805480602002602001604051908101604052809291908181526020016000905b8282101561081c57838290600052602060002090600b020160405180610160016040529081600082015481526020016001820160009054906101000a900473ffffffffffffffffffffffffffffffffffffffff1673ffffffffffffffffffffffffffffffffffffffff1673ffffffffffffffffffffffffffffffffffffffff1681526020016002820180548060200260200160405190810160405280929190818152602001828054801561068257602002820191906000526020600020905b8160009054906101000a900473ffffffffffffffffffffffffffffffffffffffff1673ffffffffffffffffffffffffffffffffffffffff1681526020019060010190808311610638575b5050505050815260200160038201805461069b90612f1d565b80601f01602080910402602001604051908101604052809291908181526020018280546106c790612f1d565b80156107145780601f106106e957610100808354040283529160200191610714565b820191906000526020600020905b8154815290600101906020018083116106f757829003601f168201915b5050505050815260200160048201805461072d90612f1d565b80601f016020809104026020016040519081016040528092919081815260200182805461075990612f1d565b80156107a65780601f1061077b576101008083540402835291602001916107a6565b820191906000526020600020905b81548152906001019060200180831161078957829003601f168201915b505050505081526020016005820160009054906101000a900460ff16151515158152602001600682015481526020016007820160009054906101000a900460ff161515151581526020016008820154815260200160098201548152602001600a8201548152505081526020019060010190610579565b5050505090506000805b82518110156108755782818151811061084257610841612f4e565b5b602002602001015160a001511561086257818061085e90612fac565b9250505b808061086d90612fac565b915050610826565b5060008167ffffffffffffffff811115610892576108916128be565b5b6040519080825280602002602001820160405280156108cb57816020015b6108b8612153565b8152602001906001900390816108b05790505b5090506000805b845181101561095a578481815181106108ee576108ed612f4e565b5b602002602001015160a00151156109475784818151811061091257610911612f4e565b5b602002602001015183838151811061092d5761092c612f4e565b5b6020026020010181905250818061094390612fac565b9250505b808061095290612fac565b9150506108d2565b508194505050505090565b6000600560008473ffffffffffffffffffffffffffffffffffffffff1673ffffffffffffffffffffffffffffffffffffffff16815260200190815260200160002082815481106109b8576109b7612f4e565b5b90600052602060002090600b02019050600081600a015411610a0f576040517f08c379a0000000000000000000000000000000000000000000000000000000008152600401610a0690613040565b60405180910390fd5b6000349050600033905082600201819080600181540180825580915050600190039060005260206000200160009091909190916101000a81548173ffffffffffffffffffffffffffffffffffffffff021916908373ffffffffffffffffffffffffffffffffffffffff16021790555081600860008773ffffffffffffffffffffffffffffffffffffffff1673ffffffffffffffffffffffffffffffffffffffff1681526020019081526020016000206000828254610acd9190613060565b92505081905550600183600a016000828254610ae99190613094565b925050819055505050505050565b6000610b016121c7565b6040518061012001604052803373ffffffffffffffffffffffffffffffffffffffff16815260200189815260200188815260200187815260200186815260200160001515815260200160008152602001858152602001848152509050600281908060018154018082558091505060019003906000526020600020906009020160009091909190915060008201518160000160006101000a81548173ffffffffffffffffffffffffffffffffffffffff021916908373ffffffffffffffffffffffffffffffffffffffff1602179055506020820151816001019081610be59190613274565b50604082015181600201556060820151816003019081610c059190613274565b506080820151816004019081610c1b9190613274565b5060a08201518160050160006101000a81548160ff02191690831515021790555060c0820151816006015560e0820151816007019081610c5b9190613274565b5061010082015181600801555050806000015191507fbe5e7a1c543800c6abb49749a131598b050660d403a09b2e31318c2048c00d7482604051610c9f9190612af5565b60405180910390a1509695505050505050565b610cba61222b565b600660003373ffffffffffffffffffffffffffffffffffffffff1673ffffffffffffffffffffffffffffffffffffffff1681526020019081526020016000206040518060e001604052908160008201548152602001600182018054610d1e90612f1d565b80601f0160208091040260200160405190810160405280929190818152602001828054610d4a90612f1d565b8015610d975780601f10610d6c57610100808354040283529160200191610d97565b820191906000526020600020905b815481529060010190602001808311610d7a57829003601f168201915b505050505081526020016002820160009054906101000a900473ffffffffffffffffffffffffffffffffffffffff1673ffffffffffffffffffffffffffffffffffffffff1673ffffffffffffffffffffffffffffffffffffffff168152602001600382018054610e0690612f1d565b80601f0160208091040260200160405190810160405280929190818152602001828054610e3290612f1d565b8015610e7f5780601f10610e5457610100808354040283529160200191610e7f565b820191906000526020600020905b815481529060010190602001808311610e6257829003601f168201915b50505050508152602001600482018054610e9890612f1d565b80601f0160208091040260200160405190810160405280929190818152602001828054610ec490612f1d565b8015610f115780601f10610ee657610100808354040283529160200191610f11565b820191906000526020600020905b815481529060010190602001808311610ef457829003601f168201915b5050505050815260200160058201548152602001600682015481525050905090565b600360405180604001604052803373ffffffffffffffffffffffffffffffffffffffff16815260200183815250908060018154018082558091505060019003906000526020600020906002020160009091909190915060008201518160000160006101000a81548173ffffffffffffffffffffffffffffffffffffffff021916908373ffffffffffffffffffffffffffffffffffffffff1602179055506020820151816001019081610fe59190613274565b50505050565b600460008373ffffffffffffffffffffffffffffffffffffffff1673ffffffffffffffffffffffffffffffffffffffff16815260200190815260200160002060405180604001604052803373ffffffffffffffffffffffffffffffffffffffff16815260200183815250908060018154018082558091505060019003906000526020600020906002020160009091909190915060008201518160000160006101000a81548173ffffffffffffffffffffffffffffffffffffffff021916908373ffffffffffffffffffffffffffffffffffffffff16021790555060208201518160010190816110da9190613274565b5050505050565b60008273ffffffffffffffffffffffffffffffffffffffff166108fc600860008673ffffffffffffffffffffffffffffffffffffffff1673ffffffffffffffffffffffffffffffffffffffff168152602001908152602001600020549081150290604051600060405180830381858888f19350505050905080611199576040517f08c379a000000000000000000000000000000000000000000000000000000000815260040161119090613392565b60405180910390fd5b6111a583836000611a5f565b505050565b60006111b461222b565b85816020018190525060005481600001818152505033816040019073ffffffffffffffffffffffffffffffffffffffff16908173ffffffffffffffffffffffffffffffffffffffff1681525050848160600181905250838160800181905250828160a001818152505080600660003373ffffffffffffffffffffffffffffffffffffffff1673ffffffffffffffffffffffffffffffffffffffff16815260200190815260200160002060008201518160000155602082015181600101908161127c9190613274565b5060408201518160020160006101000a81548173ffffffffffffffffffffffffffffffffffffffff021916908373ffffffffffffffffffffffffffffffffffffffff16021790555060608201518160030190816112d99190613274565b5060808201518160040190816112ef9190613274565b5060a0820151816005015560c08201518160060155905050600054915060008081548092919061131e90612fac565b919050555050949350505050565b6060600560003373ffffffffffffffffffffffffffffffffffffffff1673ffffffffffffffffffffffffffffffffffffffff168152602001908152602001600020805480602002602001604051908101604052809291908181526020016000905b8282101561163057838290600052602060002090600b020160405180610160016040529081600082015481526020016001820160009054906101000a900473ffffffffffffffffffffffffffffffffffffffff1673ffffffffffffffffffffffffffffffffffffffff1673ffffffffffffffffffffffffffffffffffffffff1681526020016002820180548060200260200160405190810160405280929190818152602001828054801561149657602002820191906000526020600020905b8160009054906101000a900473ffffffffffffffffffffffffffffffffffffffff1673ffffffffffffffffffffffffffffffffffffffff168152602001906001019080831161144c575b505050505081526020016003820180546114af90612f1d565b80601f01602080910402602001604051908101604052809291908181526020018280546114db90612f1d565b80156115285780601f106114fd57610100808354040283529160200191611528565b820191906000526020600020905b81548152906001019060200180831161150b57829003601f168201915b5050505050815260200160048201805461154190612f1d565b80601f016020809104026020016040519081016040528092919081815260200182805461156d90612f1d565b80156115ba5780601f1061158f576101008083540402835291602001916115ba565b820191906000526020600020905b81548152906001019060200180831161159d57829003601f168201915b505050505081526020016005820160009054906101000a900460ff16151515158152602001600682015481526020016007820160009054906101000a900460ff161515151581526020016008820154815260200160098201548152602001600a820154815250508152602001906001019061138d565b50505050905090565b600080600660003373ffffffffffffffffffffffffffffffffffffffff1673ffffffffffffffffffffffffffffffffffffffff16815260200190815260200160002060000154111561168e5760019050611739565b60005b600280549050811015611733573373ffffffffffffffffffffffffffffffffffffffff16600282815481106116c9576116c8612f4e565b5b906000526020600020906009020160000160009054906101000a900473ffffffffffffffffffffffffffffffffffffffff1673ffffffffffffffffffffffffffffffffffffffff1603611720576001915050611739565b808061172b90612fac565b915050611691565b50600090505b90565b6000600760003373ffffffffffffffffffffffffffffffffffffffff1673ffffffffffffffffffffffffffffffffffffffff16815260200190815260200160002054905090565b600060405180610160016040528060015481526020013373ffffffffffffffffffffffffffffffffffffffff168152602001600067ffffffffffffffff8111156117d0576117cf6128be565b5b6040519080825280602002602001820160405280156117fe5781602001602082028036833780820191505090505b508152602001878152602001868152602001600015158152602001858152602001600015158152602001848152602001838152602001888152509050600560003373ffffffffffffffffffffffffffffffffffffffff1673ffffffffffffffffffffffffffffffffffffffff1681526020019081526020016000208190806001815401808255809150506001900390600052602060002090600b02016000909190919091506000820151816000015560208201518160010160006101000a81548173ffffffffffffffffffffffffffffffffffffffff021916908373ffffffffffffffffffffffffffffffffffffffff160217905550604082015181600201908051906020019061191092919061227e565b5060608201518160030190816119269190613274565b50608082015181600401908161193c9190613274565b5060a08201518160050160006101000a81548160ff02191690831515021790555060c0820151816006015560e08201518160070160006101000a81548160ff0219169083151502179055506101008201518160080155610120820151816009015561014082015181600a015550508060000151600760003373ffffffffffffffffffffffffffffffffffffffff1673ffffffffffffffffffffffffffffffffffffffff1681526020019081526020016000208190555060016000815480929190611a0590612fac565b919050555050505050505050565b611a1f33826001611a5f565b50565b60606040518060400160405280601281526020017f436f6e6e656374696f6e20537563636573730000000000000000000000000000815250905090565b6000600560008573ffffffffffffffffffffffffffffffffffffffff1673ffffffffffffffffffffffffffffffffffffffff168152602001908152602001600020805480602002602001604051908101604052809291908181526020016000905b82821015611d6357838290600052602060002090600b020160405180610160016040529081600082015481526020016001820160009054906101000a900473ffffffffffffffffffffffffffffffffffffffff1673ffffffffffffffffffffffffffffffffffffffff1673ffffffffffffffffffffffffffffffffffffffff16815260200160028201805480602002602001604051908101604052809291908181526020018280548015611bc957602002820191906000526020600020905b8160009054906101000a900473ffffffffffffffffffffffffffffffffffffffff1673ffffffffffffffffffffffffffffffffffffffff1681526020019060010190808311611b7f575b50505050508152602001600382018054611be290612f1d565b80601f0160208091040260200160405190810160405280929190818152602001828054611c0e90612f1d565b8015611c5b5780601f10611c3057610100808354040283529160200191611c5b565b820191906000526020600020905b815481529060010190602001808311611c3e57829003601f168201915b50505050508152602001600482018054611c7490612f1d565b80601f0160208091040260200160405190810160405280929190818152602001828054611ca090612f1d565b8015611ced5780601f10611cc257610100808354040283529160200191611ced565b820191906000526020600020905b815481529060010190602001808311611cd057829003601f168201915b505050505081526020016005820160009054906101000a900460ff16151515158152602001600682015481526020016007820160009054906101000a900460ff161515151581526020016008820154815260200160098201548152602001600a8201548152505081526020019060010190611ac0565b505050509050611d71612153565b60005b82518110156121115784838281518110611d9157611d90612f4e565b5b602002602001015160000151036120fe5783600560008873ffffffffffffffffffffffffffffffffffffffff1673ffffffffffffffffffffffffffffffffffffffff1681526020019081526020016000208281548110611df457611df3612f4e565b5b90600052602060002090600b020160050160006101000a81548160ff021916908315150217905550600560008773ffffffffffffffffffffffffffffffffffffffff1673ffffffffffffffffffffffffffffffffffffffff1681526020019081526020016000208181548110611e6d57611e6c612f4e565b5b90600052602060002090600b020160405180610160016040529081600082015481526020016001820160009054906101000a900473ffffffffffffffffffffffffffffffffffffffff1673ffffffffffffffffffffffffffffffffffffffff1673ffffffffffffffffffffffffffffffffffffffff16815260200160028201805480602002602001604051908101604052809291908181526020018280548015611f6c57602002820191906000526020600020905b8160009054906101000a900473ffffffffffffffffffffffffffffffffffffffff1673ffffffffffffffffffffffffffffffffffffffff1681526020019060010190808311611f22575b50505050508152602001600382018054611f8590612f1d565b80601f0160208091040260200160405190810160405280929190818152602001828054611fb190612f1d565b8015611ffe5780601f10611fd357610100808354040283529160200191611ffe565b820191906000526020600020905b815481529060010190602001808311611fe157829003601f168201915b5050505050815260200160048201805461201790612f1d565b80601f016020809104026020016040519081016040528092919081815260200182805461204390612f1d565b80156120905780601f1061206557610100808354040283529160200191612090565b820191906000526020600020905b81548152906001019060200180831161207357829003601f168201915b505050505081526020016005820160009054906101000a900460ff16151515158152602001600682015481526020016007820160009054906101000a900460ff161515151581526020016008820154815260200160098201548152602001600a820154815250509150612111565b808061210990612fac565b915050611d74565b506000816101200151146121405760018160e0019015159081151581525050428161012001818152505061214c565b42816101000181815250505b5050505050565b60405180610160016040528060008152602001600073ffffffffffffffffffffffffffffffffffffffff168152602001606081526020016060815260200160608152602001600015158152602001600081526020016000151581526020016000815260200160008152602001600081525090565b604051806101200160405280600073ffffffffffffffffffffffffffffffffffffffff168152602001606081526020016000815260200160608152602001606081526020016000151581526020016000815260200160608152602001600081525090565b6040518060e001604052806000815260200160608152602001600073ffffffffffffffffffffffffffffffffffffffff168152602001606081526020016060815260200160008152602001600081525090565b8280548282559060005260206000209081019282156122f7579160200282015b828111156122f65782518260006101000a81548173ffffffffffffffffffffffffffffffffffffffff021916908373ffffffffffffffffffffffffffffffffffffffff1602179055509160200191906001019061229e565b5b5090506123049190612308565b5090565b5b80821115612321576000816000905550600101612309565b5090565b6000604051905090565b600080fd5b600080fd5b600073ffffffffffffffffffffffffffffffffffffffff82169050919050565b600061236482612339565b9050919050565b61237481612359565b811461237f57600080fd5b50565b6000813590506123918161236b565b92915050565b6000602082840312156123ad576123ac61232f565b5b60006123bb84828501612382565b91505092915050565b600081519050919050565b600082825260208201905092915050565b6000819050602082019050919050565b6123f981612359565b82525050565b600081519050919050565b600082825260208201905092915050565b60005b8381101561243957808201518184015260208101905061241e565b60008484015250505050565b6000601f19601f8301169050919050565b6000612461826123ff565b61246b818561240a565b935061247b81856020860161241b565b61248481612445565b840191505092915050565b60006040830160008301516124a760008601826123f0565b50602083015184820360208601526124bf8282612456565b9150508091505092915050565b60006124d8838361248f565b905092915050565b6000602082019050919050565b60006124f8826123c4565b61250281856123cf565b935083602082028501612514856123e0565b8060005b85811015612550578484038952815161253185826124cc565b945061253c836124e0565b925060208a01995050600181019050612518565b50829750879550505050505092915050565b6000602082019050818103600083015261257c81846124ed565b905092915050565b600081519050919050565b600082825260208201905092915050565b6000819050602082019050919050565b6000819050919050565b6125c3816125b0565b82525050565b600081519050919050565b600082825260208201905092915050565b6000819050602082019050919050565b600061260183836123f0565b60208301905092915050565b6000602082019050919050565b6000612625826125c9565b61262f81856125d4565b935061263a836125e5565b8060005b8381101561266b57815161265288826125f5565b975061265d8361260d565b92505060018101905061263e565b5085935050505092915050565b60008115159050919050565b61268d81612678565b82525050565b6000610160830160008301516126ac60008601826125ba565b5060208301516126bf60208601826123f0565b50604083015184820360408601526126d7828261261a565b915050606083015184820360608601526126f18282612456565b9150506080830151848203608086015261270b8282612456565b91505060a083015161272060a0860182612684565b5060c083015161273360c08601826125ba565b5060e083015161274660e0860182612684565b5061010083015161275b6101008601826125ba565b506101208301516127706101208601826125ba565b506101408301516127856101408601826125ba565b508091505092915050565b600061279c8383612693565b905092915050565b6000602082019050919050565b60006127bc82612584565b6127c6818561258f565b9350836020820285016127d8856125a0565b8060005b8581101561281457848403895281516127f58582612790565b9450612800836127a4565b925060208a019950506001810190506127dc565b50829750879550505050505092915050565b6000602082019050818103600083015261284081846127b1565b905092915050565b612851816125b0565b811461285c57600080fd5b50565b60008135905061286e81612848565b92915050565b6000806040838503121561288b5761288a61232f565b5b600061289985828601612382565b92505060206128aa8582860161285f565b9150509250929050565b600080fd5b600080fd5b7f4e487b7100000000000000000000000000000000000000000000000000000000600052604160045260246000fd5b6128f682612445565b810181811067ffffffffffffffff82111715612915576129146128be565b5b80604052505050565b6000612928612325565b905061293482826128ed565b919050565b600067ffffffffffffffff821115612954576129536128be565b5b61295d82612445565b9050602081019050919050565b82818337600083830152505050565b600061298c61298784612939565b61291e565b9050828152602081018484840111156129a8576129a76128b9565b5b6129b384828561296a565b509392505050565b600082601f8301126129d0576129cf6128b4565b5b81356129e0848260208601612979565b91505092915050565b60008060008060008060c08789031215612a0657612a0561232f565b5b600087013567ffffffffffffffff811115612a2457612a23612334565b5b612a3089828a016129bb565b9650506020612a4189828a0161285f565b955050604087013567ffffffffffffffff811115612a6257612a61612334565b5b612a6e89828a016129bb565b945050606087013567ffffffffffffffff811115612a8f57612a8e612334565b5b612a9b89828a016129bb565b935050608087013567ffffffffffffffff811115612abc57612abb612334565b5b612ac889828a016129bb565b92505060a0612ad989828a0161285f565b9150509295509295509295565b612aef81612359565b82525050565b6000602082019050612b0a6000830184612ae6565b92915050565b600060e083016000830151612b2860008601826125ba565b5060208301518482036020860152612b408282612456565b9150506040830151612b5560408601826123f0565b5060608301518482036060860152612b6d8282612456565b91505060808301518482036080860152612b878282612456565b91505060a0830151612b9c60a08601826125ba565b5060c0830151612baf60c08601826125ba565b508091505092915050565b60006020820190508181036000830152612bd48184612b10565b905092915050565b600060208284031215612bf257612bf161232f565b5b600082013567ffffffffffffffff811115612c1057612c0f612334565b5b612c1c848285016129bb565b91505092915050565b60008060408385031215612c3c57612c3b61232f565b5b6000612c4a85828601612382565b925050602083013567ffffffffffffffff811115612c6b57612c6a612334565b5b612c77858286016129bb565b9150509250929050565b60008060008060808587031215612c9b57612c9a61232f565b5b600085013567ffffffffffffffff811115612cb957612cb8612334565b5b612cc5878288016129bb565b945050602085013567ffffffffffffffff811115612ce657612ce5612334565b5b612cf2878288016129bb565b935050604085013567ffffffffffffffff811115612d1357612d12612334565b5b612d1f878288016129bb565b9250506060612d308782880161285f565b91505092959194509250565b612d45816125b0565b82525050565b6000602082019050612d606000830184612d3c565b92915050565b612d6f81612678565b82525050565b6000602082019050612d8a6000830184612d66565b92915050565b60008060008060008060c08789031215612dad57612dac61232f565b5b6000612dbb89828a0161285f565b965050602087013567ffffffffffffffff811115612ddc57612ddb612334565b5b612de889828a016129bb565b955050604087013567ffffffffffffffff811115612e0957612e08612334565b5b612e1589828a016129bb565b9450506060612e2689828a0161285f565b9350506080612e3789828a0161285f565b92505060a0612e4889828a0161285f565b9150509295509295509295565b600060208284031215612e6b57612e6a61232f565b5b6000612e798482850161285f565b91505092915050565b600082825260208201905092915050565b6000612e9e826123ff565b612ea88185612e82565b9350612eb881856020860161241b565b612ec181612445565b840191505092915050565b60006020820190508181036000830152612ee68184612e93565b905092915050565b7f4e487b7100000000000000000000000000000000000000000000000000000000600052602260045260246000fd5b60006002820490506001821680612f3557607f821691505b602082108103612f4857612f47612eee565b5b50919050565b7f4e487b7100000000000000000000000000000000000000000000000000000000600052603260045260246000fd5b7f4e487b7100000000000000000000000000000000000000000000000000000000600052601160045260246000fd5b6000612fb7826125b0565b91507fffffffffffffffffffffffffffffffffffffffffffffffffffffffffffffffff8203612fe957612fe8612f7d565b5b600182019050919050565b7f5269646520616c72656164792066756c6c000000000000000000000000000000600082015250565b600061302a601183612e82565b915061303582612ff4565b602082019050919050565b600060208201905081810360008301526130598161301d565b9050919050565b600061306b826125b0565b9150613076836125b0565b925082820190508082111561308e5761308d612f7d565b5b92915050565b600061309f826125b0565b91506130aa836125b0565b92508282039050818111156130c2576130c1612f7d565b5b92915050565b60008190508160005260206000209050919050565b60006020601f8301049050919050565b600082821b905092915050565b60006008830261312a7fffffffffffffffffffffffffffffffffffffffffffffffffffffffffffffffff826130ed565b61313486836130ed565b95508019841693508086168417925050509392505050565b6000819050919050565b600061317161316c613167846125b0565b61314c565b6125b0565b9050919050565b6000819050919050565b61318b83613156565b61319f61319782613178565b8484546130fa565b825550505050565b600090565b6131b46131a7565b6131bf818484613182565b505050565b5b818110156131e3576131d86000826131ac565b6001810190506131c5565b5050565b601f821115613228576131f9816130c8565b613202846130dd565b81016020851015613211578190505b61322561321d856130dd565b8301826131c4565b50505b505050565b600082821c905092915050565b600061324b6000198460080261322d565b1980831691505092915050565b6000613264838361323a565b9150826002028217905092915050565b61327d826123ff565b67ffffffffffffffff811115613296576132956128be565b5b6132a08254612f1d565b6132ab8282856131e7565b600060209050601f8311600181146132de57600084156132cc578287015190505b6132d68582613258565b86555061333e565b601f1984166132ec866130c8565b60005b82811015613314578489015182556001820191506020850194506020810190506132ef565b86831015613331578489015161332d601f89168261323a565b8355505b6001600288020188555050505b505050505050565b7f5061796d656e7420746f20447269766572204661696c65640000000000000000600082015250565b600061337c601883612e82565b915061338782613346565b602082019050919050565b600060208201905081810360008301526133ab8161336f565b905091905056fea264697066735822122095268f1cfefb5f0096027d85299f8dce954aaa5506e0909025351d3015b254bc64736f6c63430008130033",
  "linkReferences": {},
  "deployedLinkReferences": {}
}