{
  "_format": "hh-sol-artifact-1",
  "contractName": "Carpooling",
  "sourceName": "contracts/Carpooling.sol",
  "abi": [
    {
      "anonymous": false,
      "inputs": [
        {
          "indexed": false,
          "internalType": "address",
          "name": "_driverID",
          "type": "address"
        }
      ],
      "name": "DriverRegistered",
      "type": "event"
    },
    {
      "stateMutability": "nonpayable",
      "type": "fallback"
    },
    {
      "inputs": [
        {
          "internalType": "address",
          "name": "PID",
          "type": "address"
        },
        {
          "internalType": "string",
          "name": "response",
          "type": "string"
        }
      ],
      "name": "addReview",
      "outputs": [],
      "stateMutability": "nonpayable",
      "type": "function"
    },
    {
      "inputs": [
        {
          "internalType": "address",
          "name": "driver",
          "type": "address"
        },
        {
          "internalType": "uint256",
          "name": "_rideID",
          "type": "uint256"
        }
      ],
      "name": "addUserToRide",
      "outputs": [],
      "stateMutability": "payable",
      "type": "function"
    },
    {
      "inputs": [],
      "name": "connectionStatus",
      "outputs": [
        {
          "internalType": "string",
          "name": "",
          "type": "string"
        }
      ],
      "stateMutability": "pure",
      "type": "function"
    },
    {
      "inputs": [
        {
          "internalType": "address",
          "name": "_driverID",
          "type": "address"
        },
        {
          "internalType": "uint256",
          "name": "_rideId",
          "type": "uint256"
        }
      ],
      "name": "endRide",
      "outputs": [],
      "stateMutability": "payable",
      "type": "function"
    },
    {
      "inputs": [
        {
          "internalType": "address",
          "name": "_driverID",
          "type": "address"
        }
      ],
      "name": "getActiveRides",
      "outputs": [
        {
          "components": [
            {
              "internalType": "uint256",
              "name": "RID",
              "type": "uint256"
            },
            {
              "internalType": "address",
              "name": "driverID",
              "type": "address"
            },
            {
              "internalType": "address[]",
              "name": "usersID",
              "type": "address[]"
            },
            {
              "internalType": "string",
              "name": "from",
              "type": "string"
            },
            {
              "internalType": "string",
              "name": "to",
              "type": "string"
            },
            {
              "internalType": "bool",
              "name": "active",
              "type": "bool"
            },
            {
              "internalType": "uint256",
              "name": "totalCharge",
              "type": "uint256"
            },
            {
              "internalType": "bool",
              "name": "paid",
              "type": "bool"
            },
            {
              "internalType": "uint256",
              "name": "startTimestamp",
              "type": "uint256"
            },
            {
              "internalType": "uint256",
              "name": "endTimestamp",
              "type": "uint256"
            },
            {
              "internalType": "uint256",
              "name": "availableSeats",
              "type": "uint256"
            }
          ],
          "internalType": "struct Carpooling.Ride[]",
          "name": "",
          "type": "tuple[]"
        }
      ],
      "stateMutability": "view",
      "type": "function"
    },
    {
      "inputs": [
        {
          "internalType": "address",
          "name": "_driverID",
          "type": "address"
        }
      ],
      "name": "getRidesOfDriver",
      "outputs": [
        {
          "components": [
            {
              "internalType": "uint256",
              "name": "RID",
              "type": "uint256"
            },
            {
              "internalType": "address",
              "name": "driverID",
              "type": "address"
            },
            {
              "internalType": "address[]",
              "name": "usersID",
              "type": "address[]"
            },
            {
              "internalType": "string",
              "name": "from",
              "type": "string"
            },
            {
              "internalType": "string",
              "name": "to",
              "type": "string"
            },
            {
              "internalType": "bool",
              "name": "active",
              "type": "bool"
            },
            {
              "internalType": "uint256",
              "name": "totalCharge",
              "type": "uint256"
            },
            {
              "internalType": "bool",
              "name": "paid",
              "type": "bool"
            },
            {
              "internalType": "uint256",
              "name": "startTimestamp",
              "type": "uint256"
            },
            {
              "internalType": "uint256",
              "name": "endTimestamp",
              "type": "uint256"
            },
            {
              "internalType": "uint256",
              "name": "availableSeats",
              "type": "uint256"
            }
          ],
          "internalType": "struct Carpooling.Ride[]",
          "name": "",
          "type": "tuple[]"
        }
      ],
      "stateMutability": "view",
      "type": "function"
    },
    {
      "inputs": [],
      "name": "isDriverRegistered",
      "outputs": [
        {
          "internalType": "bool",
          "name": "",
          "type": "bool"
        }
      ],
      "stateMutability": "view",
      "type": "function"
    },
    {
      "inputs": [
        {
          "internalType": "string",
          "name": "_name",
          "type": "string"
        },
        {
          "internalType": "string",
          "name": "_noPlate",
          "type": "string"
        },
        {
          "internalType": "string",
          "name": "_color",
          "type": "string"
        },
        {
          "internalType": "uint256",
          "name": "_charge",
          "type": "uint256"
        }
      ],
      "name": "registerCar",
      "outputs": [
        {
          "internalType": "uint256",
          "name": "_cid",
          "type": "uint256"
        }
      ],
      "stateMutability": "nonpayable",
      "type": "function"
    },
    {
      "inputs": [
        {
          "internalType": "string",
          "name": "_name",
          "type": "string"
        },
        {
          "internalType": "uint256",
          "name": "_phoneNo",
          "type": "uint256"
        },
        {
          "internalType": "string",
          "name": "_email",
          "type": "string"
        },
        {
          "internalType": "string",
          "name": "_docsId",
          "type": "string"
        },
        {
          "internalType": "string",
          "name": "_livingAddress",
          "type": "string"
        },
        {
          "internalType": "uint256",
          "name": "_pincode",
          "type": "uint256"
        }
      ],
      "name": "registerDriver",
      "outputs": [
        {
          "internalType": "address",
          "name": "_did",
          "type": "address"
        }
      ],
      "stateMutability": "nonpayable",
      "type": "function"
    },
    {
      "inputs": [
        {
          "internalType": "address",
          "name": "_driverID",
          "type": "address"
        },
        {
          "internalType": "uint256",
          "name": "seats",
          "type": "uint256"
        },
        {
          "internalType": "address[]",
          "name": "_usersID",
          "type": "address[]"
        },
        {
          "internalType": "string",
          "name": "_from",
          "type": "string"
        },
        {
          "internalType": "string",
          "name": "_to",
          "type": "string"
        },
        {
          "internalType": "uint256",
          "name": "_totalCharge",
          "type": "uint256"
        },
        {
          "internalType": "bool",
          "name": "_paid",
          "type": "bool"
        },
        {
          "internalType": "uint256",
          "name": "_startTimestamp",
          "type": "uint256"
        },
        {
          "internalType": "uint256",
          "name": "_endTimestamp",
          "type": "uint256"
        }
      ],
      "name": "registerRide",
      "outputs": [],
      "stateMutability": "nonpayable",
      "type": "function"
    },
    {
      "inputs": [
        {
          "internalType": "string",
          "name": "_name",
          "type": "string"
        }
      ],
      "name": "registerUser",
      "outputs": [],
      "stateMutability": "nonpayable",
      "type": "function"
    },
    {
      "inputs": [
        {
          "internalType": "address",
          "name": "_driverID",
          "type": "address"
        },
        {
          "internalType": "uint256",
          "name": "_rideId",
          "type": "uint256"
        }
      ],
      "name": "startRide",
      "outputs": [],
      "stateMutability": "nonpayable",
      "type": "function"
    }
  ],
  "bytecode": "0x608060405260008055600060015534801561001957600080fd5b50612dbb806100296000396000f3fe6080604052600436106100ab5760003560e01c806378a71cc01161006457806378a71cc0146101cb5780637fed674d146101e757806381d7d0d914610210578063989795e81461024d578063ca144bc814610278578063eb4bdad0146102b5576100ac565b8063142fbc6c146100ba5780631ab4f0b1146100e35780633c739816146100ff57806365a250061461013c578063704f1b9414610179578063720c6750146101a2576100ac565b5b3480156100b857600080fd5b005b3480156100c657600080fd5b506100e160048036038101906100dc91906120b3565b6102e0565b005b6100fd60048036038101906100f891906121d1565b6104e1565b005b34801561010b57600080fd5b5061012660048036038101906101219190612211565b610673565b604051610133919061231d565b60405180910390f35b34801561014857600080fd5b50610163600480360381019061015e9190612338565b61082e565b604051610170919061267f565b60405180910390f35b34801561018557600080fd5b506101a0600480360381019061019b91906126a1565b610c7f565b005b3480156101ae57600080fd5b506101c960048036038101906101c491906126ea565b610d37565b005b6101e560048036038101906101e091906121d1565b610e2d565b005b3480156101f357600080fd5b5061020e600480360381019061020991906121d1565b610ef6565b005b34801561021c57600080fd5b5061023760048036038101906102329190612746565b610f06565b6040516102449190612810565b60405180910390f35b34801561025957600080fd5b506102626110b0565b60405161026f919061283a565b60405180910390f35b34801561028457600080fd5b5061029f600480360381019061029a9190612338565b6111b3565b6040516102ac919061267f565b60405180910390f35b3480156102c157600080fd5b506102ca6114c2565b6040516102d7919061289f565b60405180910390f35b600160008154809291906102f3906128f0565b9190505550600060405180610160016040528060015481526020018b73ffffffffffffffffffffffffffffffffffffffff16815260200189815260200188815260200187815260200160001515815260200186815260200185151581526020018481526020018381526020018a8152509050600560003373ffffffffffffffffffffffffffffffffffffffff1673ffffffffffffffffffffffffffffffffffffffff1681526020019081526020016000208190806001815401808255809150506001900390600052602060002090600b02016000909190919091506000820151816000015560208201518160010160006101000a81548173ffffffffffffffffffffffffffffffffffffffff021916908373ffffffffffffffffffffffffffffffffffffffff160217905550604082015181600201908051906020019061043b929190611bf3565b5060608201518160030190816104519190612b44565b5060808201518160040190816104679190612b44565b5060a08201518160050160006101000a81548160ff02191690831515021790555060c0820151816006015560e08201518160070160006101000a81548160ff0219169083151502179055506101008201518160080155610120820151816009015561014082015181600a0155505050505050505050505050565b6000600560008473ffffffffffffffffffffffffffffffffffffffff1673ffffffffffffffffffffffffffffffffffffffff168152602001908152602001600020828154811061053457610533612c16565b5b90600052602060002090600b02019050600081600a01541161058b576040517f08c379a000000000000000000000000000000000000000000000000000000000815260040161058290612c91565b60405180910390fd5b6000349050600033905082600201819080600181540180825580915050600190039060005260206000200160009091909190916101000a81548173ffffffffffffffffffffffffffffffffffffffff021916908373ffffffffffffffffffffffffffffffffffffffff16021790555081600760008773ffffffffffffffffffffffffffffffffffffffff1673ffffffffffffffffffffffffffffffffffffffff16815260200190815260200160002060008282546106499190612cb1565b92505081905550600183600a0160008282546106659190612ce5565b925050819055505050505050565b600061067d611c7d565b6040518061012001604052803373ffffffffffffffffffffffffffffffffffffffff16815260200189815260200188815260200187815260200186815260200160001515815260200160008152602001858152602001848152509050600281908060018154018082558091505060019003906000526020600020906009020160009091909190915060008201518160000160006101000a81548173ffffffffffffffffffffffffffffffffffffffff021916908373ffffffffffffffffffffffffffffffffffffffff16021790555060208201518160010190816107619190612b44565b506040820151816002015560608201518160030190816107819190612b44565b5060808201518160040190816107979190612b44565b5060a08201518160050160006101000a81548160ff02191690831515021790555060c0820151816006015560e08201518160070190816107d79190612b44565b5061010082015181600801555050806000015191507fbe5e7a1c543800c6abb49749a131598b050660d403a09b2e31318c2048c00d748260405161081b919061231d565b60405180910390a1509695505050505050565b60606000600560008473ffffffffffffffffffffffffffffffffffffffff1673ffffffffffffffffffffffffffffffffffffffff168152602001908152602001600020805480602002602001604051908101604052809291908181526020016000905b82821015610b3457838290600052602060002090600b020160405180610160016040529081600082015481526020016001820160009054906101000a900473ffffffffffffffffffffffffffffffffffffffff1673ffffffffffffffffffffffffffffffffffffffff1673ffffffffffffffffffffffffffffffffffffffff1681526020016002820180548060200260200160405190810160405280929190818152602001828054801561099a57602002820191906000526020600020905b8160009054906101000a900473ffffffffffffffffffffffffffffffffffffffff1673ffffffffffffffffffffffffffffffffffffffff1681526020019060010190808311610950575b505050505081526020016003820180546109b390612967565b80601f01602080910402602001604051908101604052809291908181526020018280546109df90612967565b8015610a2c5780601f10610a0157610100808354040283529160200191610a2c565b820191906000526020600020905b815481529060010190602001808311610a0f57829003601f168201915b50505050508152602001600482018054610a4590612967565b80601f0160208091040260200160405190810160405280929190818152602001828054610a7190612967565b8015610abe5780601f10610a9357610100808354040283529160200191610abe565b820191906000526020600020905b815481529060010190602001808311610aa157829003601f168201915b505050505081526020016005820160009054906101000a900460ff16151515158152602001600682015481526020016007820160009054906101000a900460ff161515151581526020016008820154815260200160098201548152602001600a8201548152505081526020019060010190610891565b5050505090506000805b8251811015610b8d57828181518110610b5a57610b59612c16565b5b602002602001015160a0015115610b7a578180610b76906128f0565b9250505b8080610b85906128f0565b915050610b3e565b5060008167ffffffffffffffff811115610baa57610ba9611e83565b5b604051908082528060200260200182016040528015610be357816020015b610bd0611ce1565b815260200190600190039081610bc85790505b5090506000805b8451811015610c7257848181518110610c0657610c05612c16565b5b602002602001015160a0015115610c5f57848181518110610c2a57610c29612c16565b5b6020026020010151838381518110610c4557610c44612c16565b5b60200260200101819052508180610c5b906128f0565b9250505b8080610c6a906128f0565b915050610bea565b5081945050505050919050565b600360405180604001604052803373ffffffffffffffffffffffffffffffffffffffff16815260200183815250908060018154018082558091505060019003906000526020600020906002020160009091909190915060008201518160000160006101000a81548173ffffffffffffffffffffffffffffffffffffffff021916908373ffffffffffffffffffffffffffffffffffffffff1602179055506020820151816001019081610d319190612b44565b50505050565b600460008373ffffffffffffffffffffffffffffffffffffffff1673ffffffffffffffffffffffffffffffffffffffff16815260200190815260200160002060405180604001604052808473ffffffffffffffffffffffffffffffffffffffff16815260200183815250908060018154018082558091505060019003906000526020600020906002020160009091909190915060008201518160000160006101000a81548173ffffffffffffffffffffffffffffffffffffffff021916908373ffffffffffffffffffffffffffffffffffffffff1602179055506020820151816001019081610e269190612b44565b5050505050565b60008273ffffffffffffffffffffffffffffffffffffffff166108fc600760008673ffffffffffffffffffffffffffffffffffffffff1673ffffffffffffffffffffffffffffffffffffffff168152602001908152602001600020549081150290604051600060405180830381858888f19350505050905080610ee5576040517f08c379a0000000000000000000000000000000000000000000000000000000008152600401610edc90612d65565b60405180910390fd5b610ef1838360006114ff565b505050565b610f02828260016114ff565b5050565b6000806000815480929190610f1a906128f0565b9190505550610f27611d55565b85816020018190525060005481600001818152505033816040019073ffffffffffffffffffffffffffffffffffffffff16908173ffffffffffffffffffffffffffffffffffffffff1681525050848160600181905250838160800181905250828160a0018181525050600660003373ffffffffffffffffffffffffffffffffffffffff1673ffffffffffffffffffffffffffffffffffffffff1681526020019081526020016000208190806001815401808255809150506001900390600052602060002090600702016000909190919091506000820151816000015560208201518160010190816110189190612b44565b5060408201518160020160006101000a81548173ffffffffffffffffffffffffffffffffffffffff021916908373ffffffffffffffffffffffffffffffffffffffff16021790555060608201518160030190816110759190612b44565b50608082015181600401908161108b9190612b44565b5060a0820151816005015560c082015181600601555050600054915050949350505050565b600080600660003373ffffffffffffffffffffffffffffffffffffffff1673ffffffffffffffffffffffffffffffffffffffff16815260200190815260200160002080549050111561110557600190506111b0565b60005b6002805490508110156111aa573373ffffffffffffffffffffffffffffffffffffffff16600282815481106111405761113f612c16565b5b906000526020600020906009020160000160009054906101000a900473ffffffffffffffffffffffffffffffffffffffff1673ffffffffffffffffffffffffffffffffffffffff16036111975760019150506111b0565b80806111a2906128f0565b915050611108565b50600090505b90565b6060600560008373ffffffffffffffffffffffffffffffffffffffff1673ffffffffffffffffffffffffffffffffffffffff168152602001908152602001600020805480602002602001604051908101604052809291908181526020016000905b828210156114b757838290600052602060002090600b020160405180610160016040529081600082015481526020016001820160009054906101000a900473ffffffffffffffffffffffffffffffffffffffff1673ffffffffffffffffffffffffffffffffffffffff1673ffffffffffffffffffffffffffffffffffffffff1681526020016002820180548060200260200160405190810160405280929190818152602001828054801561131d57602002820191906000526020600020905b8160009054906101000a900473ffffffffffffffffffffffffffffffffffffffff1673ffffffffffffffffffffffffffffffffffffffff16815260200190600101908083116112d3575b5050505050815260200160038201805461133690612967565b80601f016020809104026020016040519081016040528092919081815260200182805461136290612967565b80156113af5780601f10611384576101008083540402835291602001916113af565b820191906000526020600020905b81548152906001019060200180831161139257829003601f168201915b505050505081526020016004820180546113c890612967565b80601f01602080910402602001604051908101604052809291908181526020018280546113f490612967565b80156114415780601f1061141657610100808354040283529160200191611441565b820191906000526020600020905b81548152906001019060200180831161142457829003601f168201915b505050505081526020016005820160009054906101000a900460ff16151515158152602001600682015481526020016007820160009054906101000a900460ff161515151581526020016008820154815260200160098201548152602001600a8201548152505081526020019060010190611214565b505050509050919050565b60606040518060400160405280601281526020017f436f6e6e656374696f6e20537563636573730000000000000000000000000000815250905090565b6000600560008573ffffffffffffffffffffffffffffffffffffffff1673ffffffffffffffffffffffffffffffffffffffff168152602001908152602001600020805480602002602001604051908101604052809291908181526020016000905b8282101561180357838290600052602060002090600b020160405180610160016040529081600082015481526020016001820160009054906101000a900473ffffffffffffffffffffffffffffffffffffffff1673ffffffffffffffffffffffffffffffffffffffff1673ffffffffffffffffffffffffffffffffffffffff1681526020016002820180548060200260200160405190810160405280929190818152602001828054801561166957602002820191906000526020600020905b8160009054906101000a900473ffffffffffffffffffffffffffffffffffffffff1673ffffffffffffffffffffffffffffffffffffffff168152602001906001019080831161161f575b5050505050815260200160038201805461168290612967565b80601f01602080910402602001604051908101604052809291908181526020018280546116ae90612967565b80156116fb5780601f106116d0576101008083540402835291602001916116fb565b820191906000526020600020905b8154815290600101906020018083116116de57829003601f168201915b5050505050815260200160048201805461171490612967565b80601f016020809104026020016040519081016040528092919081815260200182805461174090612967565b801561178d5780601f106117625761010080835404028352916020019161178d565b820191906000526020600020905b81548152906001019060200180831161177057829003601f168201915b505050505081526020016005820160009054906101000a900460ff16151515158152602001600682015481526020016007820160009054906101000a900460ff161515151581526020016008820154815260200160098201548152602001600a8201548152505081526020019060010190611560565b505050509050611811611ce1565b60005b8251811015611bb1578483828151811061183157611830612c16565b5b60200260200101516000015103611b9e5783600560008873ffffffffffffffffffffffffffffffffffffffff1673ffffffffffffffffffffffffffffffffffffffff168152602001908152602001600020828154811061189457611893612c16565b5b90600052602060002090600b020160050160006101000a81548160ff021916908315150217905550600560008773ffffffffffffffffffffffffffffffffffffffff1673ffffffffffffffffffffffffffffffffffffffff168152602001908152602001600020818154811061190d5761190c612c16565b5b90600052602060002090600b020160405180610160016040529081600082015481526020016001820160009054906101000a900473ffffffffffffffffffffffffffffffffffffffff1673ffffffffffffffffffffffffffffffffffffffff1673ffffffffffffffffffffffffffffffffffffffff16815260200160028201805480602002602001604051908101604052809291908181526020018280548015611a0c57602002820191906000526020600020905b8160009054906101000a900473ffffffffffffffffffffffffffffffffffffffff1673ffffffffffffffffffffffffffffffffffffffff16815260200190600101908083116119c2575b50505050508152602001600382018054611a2590612967565b80601f0160208091040260200160405190810160405280929190818152602001828054611a5190612967565b8015611a9e5780601f10611a7357610100808354040283529160200191611a9e565b820191906000526020600020905b815481529060010190602001808311611a8157829003601f168201915b50505050508152602001600482018054611ab790612967565b80601f0160208091040260200160405190810160405280929190818152602001828054611ae390612967565b8015611b305780601f10611b0557610100808354040283529160200191611b30565b820191906000526020600020905b815481529060010190602001808311611b1357829003601f168201915b505050505081526020016005820160009054906101000a900460ff16151515158152602001600682015481526020016007820160009054906101000a900460ff161515151581526020016008820154815260200160098201548152602001600a820154815250509150611bb1565b8080611ba9906128f0565b915050611814565b50600081610120015114611be05760018160e00190151590811515815250504281610120018181525050611bec565b42816101000181815250505b5050505050565b828054828255906000526020600020908101928215611c6c579160200282015b82811115611c6b5782518260006101000a81548173ffffffffffffffffffffffffffffffffffffffff021916908373ffffffffffffffffffffffffffffffffffffffff16021790555091602001919060010190611c13565b5b509050611c799190611da8565b5090565b604051806101200160405280600073ffffffffffffffffffffffffffffffffffffffff168152602001606081526020016000815260200160608152602001606081526020016000151581526020016000815260200160608152602001600081525090565b60405180610160016040528060008152602001600073ffffffffffffffffffffffffffffffffffffffff168152602001606081526020016060815260200160608152602001600015158152602001600081526020016000151581526020016000815260200160008152602001600081525090565b6040518060e001604052806000815260200160608152602001600073ffffffffffffffffffffffffffffffffffffffff168152602001606081526020016060815260200160008152602001600081525090565b5b80821115611dc1576000816000905550600101611da9565b5090565b6000604051905090565b600080fd5b600080fd5b600073ffffffffffffffffffffffffffffffffffffffff82169050919050565b6000611e0482611dd9565b9050919050565b611e1481611df9565b8114611e1f57600080fd5b50565b600081359050611e3181611e0b565b92915050565b6000819050919050565b611e4a81611e37565b8114611e5557600080fd5b50565b600081359050611e6781611e41565b92915050565b600080fd5b6000601f19601f8301169050919050565b7f4e487b7100000000000000000000000000000000000000000000000000000000600052604160045260246000fd5b611ebb82611e72565b810181811067ffffffffffffffff82111715611eda57611ed9611e83565b5b80604052505050565b6000611eed611dc5565b9050611ef98282611eb2565b919050565b600067ffffffffffffffff821115611f1957611f18611e83565b5b602082029050602081019050919050565b600080fd5b6000611f42611f3d84611efe565b611ee3565b90508083825260208201905060208402830185811115611f6557611f64611f2a565b5b835b81811015611f8e5780611f7a8882611e22565b845260208401935050602081019050611f67565b5050509392505050565b600082601f830112611fad57611fac611e6d565b5b8135611fbd848260208601611f2f565b91505092915050565b600080fd5b600067ffffffffffffffff821115611fe657611fe5611e83565b5b611fef82611e72565b9050602081019050919050565b82818337600083830152505050565b600061201e61201984611fcb565b611ee3565b90508281526020810184848401111561203a57612039611fc6565b5b612045848285611ffc565b509392505050565b600082601f83011261206257612061611e6d565b5b813561207284826020860161200b565b91505092915050565b60008115159050919050565b6120908161207b565b811461209b57600080fd5b50565b6000813590506120ad81612087565b92915050565b60008060008060008060008060006101208a8c0312156120d6576120d5611dcf565b5b60006120e48c828d01611e22565b99505060206120f58c828d01611e58565b98505060408a013567ffffffffffffffff81111561211657612115611dd4565b5b6121228c828d01611f98565b97505060608a013567ffffffffffffffff81111561214357612142611dd4565b5b61214f8c828d0161204d565b96505060808a013567ffffffffffffffff8111156121705761216f611dd4565b5b61217c8c828d0161204d565b95505060a061218d8c828d01611e58565b94505060c061219e8c828d0161209e565b93505060e06121af8c828d01611e58565b9250506101006121c18c828d01611e58565b9150509295985092959850929598565b600080604083850312156121e8576121e7611dcf565b5b60006121f685828601611e22565b925050602061220785828601611e58565b9150509250929050565b60008060008060008060c0878903121561222e5761222d611dcf565b5b600087013567ffffffffffffffff81111561224c5761224b611dd4565b5b61225889828a0161204d565b965050602061226989828a01611e58565b955050604087013567ffffffffffffffff81111561228a57612289611dd4565b5b61229689828a0161204d565b945050606087013567ffffffffffffffff8111156122b7576122b6611dd4565b5b6122c389828a0161204d565b935050608087013567ffffffffffffffff8111156122e4576122e3611dd4565b5b6122f089828a0161204d565b92505060a061230189828a01611e58565b9150509295509295509295565b61231781611df9565b82525050565b6000602082019050612332600083018461230e565b92915050565b60006020828403121561234e5761234d611dcf565b5b600061235c84828501611e22565b91505092915050565b600081519050919050565b600082825260208201905092915050565b6000819050602082019050919050565b61239a81611e37565b82525050565b6123a981611df9565b82525050565b600081519050919050565b600082825260208201905092915050565b6000819050602082019050919050565b60006123e783836123a0565b60208301905092915050565b6000602082019050919050565b600061240b826123af565b61241581856123ba565b9350612420836123cb565b8060005b8381101561245157815161243888826123db565b9750612443836123f3565b925050600181019050612424565b5085935050505092915050565b600081519050919050565b600082825260208201905092915050565b60005b8381101561249857808201518184015260208101905061247d565b60008484015250505050565b60006124af8261245e565b6124b98185612469565b93506124c981856020860161247a565b6124d281611e72565b840191505092915050565b6124e68161207b565b82525050565b6000610160830160008301516125056000860182612391565b50602083015161251860208601826123a0565b50604083015184820360408601526125308282612400565b9150506060830151848203606086015261254a82826124a4565b9150506080830151848203608086015261256482826124a4565b91505060a083015161257960a08601826124dd565b5060c083015161258c60c0860182612391565b5060e083015161259f60e08601826124dd565b506101008301516125b4610100860182612391565b506101208301516125c9610120860182612391565b506101408301516125de610140860182612391565b508091505092915050565b60006125f583836124ec565b905092915050565b6000602082019050919050565b600061261582612365565b61261f8185612370565b93508360208202850161263185612381565b8060005b8581101561266d578484038952815161264e85826125e9565b9450612659836125fd565b925060208a01995050600181019050612635565b50829750879550505050505092915050565b60006020820190508181036000830152612699818461260a565b905092915050565b6000602082840312156126b7576126b6611dcf565b5b600082013567ffffffffffffffff8111156126d5576126d4611dd4565b5b6126e18482850161204d565b91505092915050565b6000806040838503121561270157612700611dcf565b5b600061270f85828601611e22565b925050602083013567ffffffffffffffff8111156127305761272f611dd4565b5b61273c8582860161204d565b9150509250929050565b600080600080608085870312156127605761275f611dcf565b5b600085013567ffffffffffffffff81111561277e5761277d611dd4565b5b61278a8782880161204d565b945050602085013567ffffffffffffffff8111156127ab576127aa611dd4565b5b6127b78782880161204d565b935050604085013567ffffffffffffffff8111156127d8576127d7611dd4565b5b6127e48782880161204d565b92505060606127f587828801611e58565b91505092959194509250565b61280a81611e37565b82525050565b60006020820190506128256000830184612801565b92915050565b6128348161207b565b82525050565b600060208201905061284f600083018461282b565b92915050565b600082825260208201905092915050565b60006128718261245e565b61287b8185612855565b935061288b81856020860161247a565b61289481611e72565b840191505092915050565b600060208201905081810360008301526128b98184612866565b905092915050565b7f4e487b7100000000000000000000000000000000000000000000000000000000600052601160045260246000fd5b60006128fb82611e37565b91507fffffffffffffffffffffffffffffffffffffffffffffffffffffffffffffffff820361292d5761292c6128c1565b5b600182019050919050565b7f4e487b7100000000000000000000000000000000000000000000000000000000600052602260045260246000fd5b6000600282049050600182168061297f57607f821691505b60208210810361299257612991612938565b5b50919050565b60008190508160005260206000209050919050565b60006020601f8301049050919050565b600082821b905092915050565b6000600883026129fa7fffffffffffffffffffffffffffffffffffffffffffffffffffffffffffffffff826129bd565b612a0486836129bd565b95508019841693508086168417925050509392505050565b6000819050919050565b6000612a41612a3c612a3784611e37565b612a1c565b611e37565b9050919050565b6000819050919050565b612a5b83612a26565b612a6f612a6782612a48565b8484546129ca565b825550505050565b600090565b612a84612a77565b612a8f818484612a52565b505050565b5b81811015612ab357612aa8600082612a7c565b600181019050612a95565b5050565b601f821115612af857612ac981612998565b612ad2846129ad565b81016020851015612ae1578190505b612af5612aed856129ad565b830182612a94565b50505b505050565b600082821c905092915050565b6000612b1b60001984600802612afd565b1980831691505092915050565b6000612b348383612b0a565b9150826002028217905092915050565b612b4d8261245e565b67ffffffffffffffff811115612b6657612b65611e83565b5b612b708254612967565b612b7b828285612ab7565b600060209050601f831160018114612bae5760008415612b9c578287015190505b612ba68582612b28565b865550612c0e565b601f198416612bbc86612998565b60005b82811015612be457848901518255600182019150602085019450602081019050612bbf565b86831015612c015784890151612bfd601f891682612b0a565b8355505b6001600288020188555050505b505050505050565b7f4e487b7100000000000000000000000000000000000000000000000000000000600052603260045260246000fd5b7f5269646520616c72656164792066756c6c000000000000000000000000000000600082015250565b6000612c7b601183612855565b9150612c8682612c45565b602082019050919050565b60006020820190508181036000830152612caa81612c6e565b9050919050565b6000612cbc82611e37565b9150612cc783611e37565b9250828201905080821115612cdf57612cde6128c1565b5b92915050565b6000612cf082611e37565b9150612cfb83611e37565b9250828203905081811115612d1357612d126128c1565b5b92915050565b7f5061796d656e7420746f20447269766572204661696c65640000000000000000600082015250565b6000612d4f601883612855565b9150612d5a82612d19565b602082019050919050565b60006020820190508181036000830152612d7e81612d42565b905091905056fea2646970667358221220d594709d420d6b8120b1782cfb4efa954f44f28893ff7ce11a329342403e085e64736f6c63430008130033",
  "linkReferences": {},
  "deployedLinkReferences": {}
}